:100000000C9424010C9441010C9441010C94410185
:100010000C9441010C9441010C9441010C94410158
:100020000C9441010C9441010C9441010C94410148
:100030000C9441010C9441010C94E9010C94410190
:100040000C9441010C9441010C945D010C9441010C
:100050000C9441010C9441010C9441010C94410118
:100060000C9441010C944101000000000000005F6D
:1000700000000007000700147F147F14242A7F2A41
:1000800012C4C81026463649552250020502000007
:10009000001C2241000041221C0014083E081408E4
:1000A000083E0808000050300010101010100060CA
:1000B00060000020100804023E5149453E00427F86
:1000C0004000426151494622414949361814127F85
:1000D0001027454545393C4A494930017109050316
:1000E0003649494936064949291E0036360000007E
:1000F0005636000008142241001414141414004150
:100100002214080201510906324959513E7E11114B
:10011000117E7F494949363E414141227F4141227A
:100120001C7F494949417F090909013E4149497AF2
:100130007F0808087F00417F41002040413F017F48
:10014000081422417F404040407F020C027F7F0420
:1001500008107F3E4141413E7F090909063E415159
:10016000215E7F09192946464949493101017F012C
:10017000013F4040403F1F2040201F3F4038403F4C
:100180006314081463070870080761514945430068
:100190007F414100552A552A550041417F00040204
:1001A0000102044040404040000102040020545439
:1001B00054787F48444438384444442038444448C0
:1001C0007F3854545418087E0901020C5252523E92
:1001D0007F0804047800447D40002040443D007FB7
:1001E0001028440000417F40007C041804787C08FB
:1001F00004047838444444387C1414140808141453
:10020000187C7C080404084854545420043F44409B
:10021000203C4040207C1C2040201C3C4030403C86
:1002200044281028440C5050503C4464544C440022
:100230000836410000007F00000041360800080831
:100240002A1C08081C2A080811241FBECFEFD4E07E
:10025000DEBFCDBF11E0A0E0B1E0E8E8FDE102C003
:1002600005900D92AA34B107D9F712E0AAE4B1E0E3
:1002700001C01D92A637B107E1F70E949F0D0C94B3
:10028000C20E0C9400001092C50083E38093C4005A
:100290001092C00080E98093C10086E08093C20084
:1002A000089582E084BD83E085BD8DE787BDEEE6DD
:1002B000F0E080818260808308951F920F920FB6D4
:1002C0000F9211242F938F939F93EF93FF93E091BD
:1002D0007D01F0917E018091C6008083909156014E
:1002E00080915701981709F06AC0E0917D01F09163
:1002F0007E0180818A30A1F480915601882331F4F7
:1003000081E0809356018CE092E004C01092560187
:100310008EEA91E090937E0180937D0110925801C6
:10032000E0917D01F0917E018081843229F08091FD
:100330005801813009F043C081E0809358018091D9
:10034000AE01843269F48091AF01843249F080912A
:100350005601882329F43196F0937E01E0937D01C4
:1003600080910C02843289F480910D02843269F00C
:1003700080915601882349F080917D0190917E0102
:10038000019690937E0180937D0180915601882390
:1003900049F480917D0190917E018050924010F04F
:1003A0001092580180915601813049F480917D016D
:1003B00090917E018E55924010F010925801FF915D
:1003C000EF919F918F912F910F900FBE0F901F90E3
:1003D00018951F920F920FB60F9211248F939F932F
:1003E00080914A0190914B01019690934B0180932B
:1003F0004A0180914C018F5F80934C0180914C01A8
:100400008A3051F410924C0180914D018F5F80939E
:100410004D0181E08093510180914D018A3051F46A
:1004200010924D0180914E018F5F80934E0181E0CB
:100430008093520180914E018A3051F410924E0106
:1004400080914F018F5F80934F0181E08093530132
:1004500080914F018A3051F410924F0180915001E8
:100460008F5F8093500181E080935401809150010F
:10047000863029F41092500181E0809355019F91BC
:100480008F910F900FBE0F901F9018955D9A81E08D
:100490008093470108955D9810924701089590E078
:1004A00087FF02C0599A01C059985C985C9A9F5F77
:1004B000983011F0880FF4CF5998089529984198F1
:1004C0000E944F02419A089584E20E945E0287E0F2
:1004D0000E945E0287E00E945E0289E30E945E0243
:1004E0008FE40E945E0280E00E945E0280E090E065
:1004F00020ED37E0F9013197F1F701968F31910541
:10050000C9F708954298429A85E10E945E0287E009
:100510000E945E0289E30E945E0285E70E945E02FD
:1005200080E00E945E028FE40E945E0286E80E94E4
:100530005E0281E80E945E028DE20E945E028EEB06
:100540000E945E0280E00E945E028CEB0E945E02CE
:100550008FE00E945E0280EA0E945E0281E40E94B7
:100560005E0286EA0E945E0288EA0E945E028FE4D2
:100570000E945E0281EB0E945E0282E20E945E02A5
:1005800082EB0E945E0286E40E945E0280EB0E9483
:100590005E0288E00E945E0284EB0E945E0280E0C0
:1005A0000E945E0283EB0E945E0280EA0E945E026D
:1005B0008FEB0E945E028DE00E945E0288EB0E943B
:1005C0005E0281E00E945E0281E10E945E0282E2A0
:1005D0000E945E0282E30E945E0283E40E945E0249
:1005E00084E50E945E0285E60E945E0286E70E9424
:1005F0005E028EEA0E945E028DEA0E945E0282E046
:100600000E945E0280E090E020ED37E0F901319732
:10061000F1F701968C349105C9F784EA0E945E02D5
:100620008FEA0E945E0283EE0E945E02089529987E
:10063000419A0E944F02299A0895AF92BF92CF9299
:10064000DF92EF92FF920F931F93982F062FF42EB5
:100650008052803608F090E2E5E09E9FF001112480
:10066000E05AF040CF010196E859FF4FA4909C0159
:100670002F5F3F4F88599F4FFC01B490C9010196ED
:1006800028593F4FF901C490FC01E859FF4FD4901D
:1006900087599F4FFC01E49085E10E945E0213E0C0
:1006A000019F102D1124812F895F0E945E02812FEE
:1006B000875F0E945E0285E70E945E028F2D90E0B8
:1006C00023E0880F991F2A95E1F7182F0E945E02F8
:1006D000812F895F0E945E0211E000E0812F8A2154
:1006E00011F490E001C090EF812F8B2109F09F6001
:1006F000892F0E941703812F8C2111F490E001C0F3
:1007000090EF812F8D2109F09F60892F0E941703A0
:10071000812F8E2109F080EF0E9417030F5F0830B0
:1007200011F0110FDBCF1F910F91FF90EF90DF9031
:10073000CF90BF90AF9008954F925F926F927F924B
:100740008F929F92AF92BF92CF92DF92EF92FF92E1
:100750000F931F93CF93DF936C01942EFC01849130
:100760000894C11CD11CF60124910894C11CD11C11
:10077000F60194914EEF5FEFC40ED51E813009F063
:1007800051C0E3E0EE2EF12C77E0472E460E3DC03F
:10079000FE0164902196FE017490219785E10E94EC
:1007A0005E028B2D0E945E028B2D0E945E0285E709
:1007B0000E945E02882D0E945E02852D0E945E02CC
:1007C00011E000E0812F862111F490E001C090EF4C
:1007D000812F872109F09F60892F0E9417030F5FE7
:1007E000083011F0110FEECFA3942296B394FAE2E1
:1007F000AF1671F624E530E0E20EF31E3BEFE31690
:1008000031E0F30609F458C09394892C880C880CC5
:10081000880C67E0562E580CE601CE0DDF1DB42C77
:10082000AA24B6CF622E7724892F90E0869DE0011E
:10083000879DD00D969DD00D1124D695C7952296F3
:100840004C019694879436E0A32EA80CBB242FC0AD
:1008500085E10E945E0287E00E945E028A2D0E946E
:100860005E0285E70E945E028B2D0E945E028B2D48
:100870000E945E027601EC0EFD1E8E010FC001503B
:100880001040F7018491982F92959F708295807FF8
:10089000890F0E9417030894E108F1089E01201BAC
:1008A000822F90E08815990550F3B394E8018B2DC1
:1008B00090E08615970560F2DF91CF911F910F911F
:1008C000FF90EF90DF90CF90BF90AF909F908F9070
:1008D0007F906F905F904F900895CF93DF9385E165
:1008E0000E945E0287E00E945E0289E30E945E022F
:1008F00085E70E945E0280E00E945E028FE40E9413
:100900005E02C0E0D0E080E00E94170321968FE0F5
:10091000C03FD807C1F7DF91CF9108950F931F9380
:10092000CF93DF93982F062FEA0108C0192F1F5F7E
:10093000692F402F0E941D032196912F88818823C3
:1009400011F0913198F3DF91CF911F910F9108959C
:1009500020E030E040ED57E005C0FA013197F1F7B3
:100960002F5F3F4F82179307C4F708950895809132
:100970006F01882339F080916F01815080936F015E
:1009800080E008954B9929C089E0809348018091C7
:100990004701882321F45D9A81E08093470180918B
:1009A00004028F5F809304029091040280914601BB
:1009B000891710F4109204028EE180936F019091D8
:1009C000040280910502981741F0809104028093FF
:1009D00005020E946D0481E0089580E0089580E0A2
:1009E00062E040E051E00E948E0480910602829510
:1009F0008F70805D65E045E00E941D0380910602D6
:100A00008F70805D66E045E00E941D038AE367E029
:100A100045E00E941D038091070282958F70805DE2
:100A200068E045E00E941D03809107028F70805DA1
:100A300069E045E00E941D038EE26AE045E00E9405
:100A40001D038091080282958F70805D6BE045E008
:100A50000E941D03809108028F70805D6CE045E06C
:100A60000E941D038091620265E048E00E941D0320
:100A70008091740266E048E00E941D038EE267E008
:100A800048E00E941D038091750268E048E00E94E2
:100A90001D038091030269E048E00E941D038EE27D
:100AA0006AE048E00E941D03809160026BE048E02C
:100AB0000E941D0380910B026CE048E00E941D0320
:100AC0000895CF92DF92EF92FF920F931F93CF93EF
:100AD000DF9380915001805D6EE041E00E941D0334
:100AE00080914F01805D6FE041E00E941D03809185
:100AF0004E01805D60E141E00E941D03809106028D
:100B000082958F70805D60E040E00E941D038091BF
:100B100006028F70805D61E040E00E941D038AE361
:100B200062E040E00E941D038091070282958F7071
:100B3000805D63E040E00E941D03809107028F709A
:100B4000805D64E040E00E941D038EE265E040E0CD
:100B50000E941D038091080282958F70805D66E07F
:100B600040E00E941D03809108028F70805D67E065
:100B700040E00E941D0390917402809161029817D9
:100B8000B9F180E268E040E00E941D0380916202BA
:100B900069E040E00E941D03809174026AE040E039
:100BA0000E941D038EE26BE040E00E941D038091D5
:100BB00075026CE040E00E941D03809103026DE02D
:100BC00040E00E941D038EE26EE040E00E941D03A3
:100BD000809160026FE040E00E941D0380910B0253
:100BE00060E140E00E941D038091610280937402E5
:100BF00080914F01823029F080914F01873009F0B8
:100C0000EAC080915F0260E041E00E941D0300E0C5
:100C100010E0F801E759FD4F602F6F5F808141E0E0
:100C20000E941D030F5F1F4F0A30110591F780913D
:100C30000A0260E042E00E941D0300E010E0F801BB
:100C4000E156FE4F602F6F5F808142E00E941D03DE
:100C50000F5F1F4F0930110591F780E26AE042E013
:100C60000E941D0300E010E0F801E65AFE4F602FDD
:100C7000655F808142E00E941D030F5F1F4F0530BA
:100C8000110591F78091700160E142E00E941D031F
:100C900086E760E043E00E941D038AE361E043E0F1
:100CA0000E941D038091010282958F70805D62E039
:100CB00043E00E941D03809101028F70805D63E01C
:100CC00043E00E941D0380E264E043E00E941D03B4
:100CD00085E765E043E00E941D038AE366E043E0A8
:100CE0000E941D038091AA0167E043E00E941D035A
:100CF0008091730268E043E00E941D0380E269E096
:100D000043E00E941D03809109026AE043E00E94D3
:100D10001D0380910902823310F480E201C084E651
:100D20006BE043E00E941D0380E760E044E00E9426
:100D30001D038091600161E044E00E941D038091E9
:100D4000610162E044E00E941D038091620163E062
:100D500044E00E941D038091630164E044E00E942E
:100D60001D0388E666E044E00E941D038091650152
:100D700067E044E00E941D038091660168E044E062
:100D80000E941D038091670169E044E00E941D03F9
:100D9000809168016AE044E00E941D0386E76CE0F0
:100DA00044E00E941D0380916A016DE044E00E94CE
:100DB0001D0380916B016EE044E00E941D03809151
:100DC0006C016FE044E00E941D0380916D0160E1C1
:100DD00044E00E941D0380910102863118F085E1F4
:100DE0008093010280910102E090010282958F7050
:100DF0002AE0829FC00111242FE0E222E80E10E0D9
:100E000095E0F92ECC24DD245FC0833021F410E07E
:100E100086E0F82E11C0863021F410E007E0F02EB5
:100E20000BC0893021F410E0B8E0FB2E05C08C30F7
:100E300019F410E0A9E0FA2EE601CC0FDD1FC1582D
:100E4000DE4F8881012F0F5F82958F70805D612F4B
:100E50004F2D0E941D0388811E5F8F70805D602F63
:100E60004F2D0E941D030E5F8DE2612F4F2D0E94BA
:100E70001D038981823088F08981833670F48981ED
:100E80001E5F82958F70805D602F4F2D0E941D0325
:100E900089810E5F8F70805D09C0102F1F5F8FE505
:100EA000602F4F2D0E941D030E5F8FE5612F4F2D88
:100EB0000E941D03102F1F5F80E2602F4F2D0E94A4
:100EC0001D030894C11CD11C8C2DCE1408F49DCF99
:100ED000DF91CF911F910F91FF90EF90DF90CF9016
:100EE00008951F9380915601882311F060E02EC071
:100EF00060E010C08081162F1F5F44E00E941D0338
:100F00008091AB019091AC0101969093AC018093DC
:100F1000AB01612FE091AB01F091AC0180818A308F
:100F200001F182E0E431F80728F31BC08081162F1D
:100F30001F5F45E00E941D038091AB019091AC01C1
:100F400001969093AC018093AB01612FE091AB01CE
:100F5000F091AC0180818A3021F081E0E63BF80716
:100F600028F31F910895CF93DF93C091AB01D091E7
:100F7000AC018985813379F08985823311F424E0CD
:100F80000BC08985833311F428E006C0898584333A
:100F900011F42CE001C020E0FE0193E0A0E080818C
:100FA0008C3209F49150AF5F992329F0A23511F0EA
:100FB0003196F5CFAFEFB0E0FE01EA0FFB1F808165
:100FC0008295807F80930102909101021196AC0F6F
:100FD000BD1F8C918F70890F80930102FE0194E0F8
:100FE000A0E080818C3209F49150AF5F992329F001
:100FF000A23511F03196F5CFAFEF422F50E0B0E0BF
:10100000FE01EA0FFB1F80818295807FFA01EE0FBF
:10101000FF1FE158FE4F808390811196AC0FBD1FDA
:101020008C918F70890F8083FE0197E0A0E0808112
:101030008C3209F49150AF5F992329F0A23511F059
:101040003196F5CFAFEFB0E0FE01EA0FFB1F8081D4
:101050008295807FFA01EE0FFF1FE158FE4F8183DA
:1010600091811196AC0FBD1F8C918F70890F818378
:10107000FE0198E0A0E080818C3209F49150AF5FCE
:10108000992329F0A23511F03196F5CFAFEF9A01EF
:101090002F5F3F4FB0E0FE01EA0FFB1F808182957A
:1010A000807FF901EE0FFF1FE158FE4F8083908192
:1010B0001196AC0FBD1F8C918F70890F8083FE013C
:1010C0009BE0A0E080818C3209F49150AF5F9923BE
:1010D00029F0A23511F03196F5CFAFEFB0E0FE0167
:1010E000EA0FFB1F80818295807FF901EE0FFF1FC1
:1010F000E158FE4F818391811196AC0FBD1F8C91F9
:101100008F70890F8183FE019CE0A0E080818C328A
:1011100009F49150AF5F992329F0A23511F031966F
:10112000F5CFAFEF9A012E5F3F4FB0E0FE01EA0F1F
:10113000FB1F80818295807FF901EE0FFF1FE15830
:10114000FE4F808390811196AC0FBD1F8C918F70E4
:10115000890F8083FE019FE0A0E080818C3209F43A
:101160009150AF5F992329F0A23511F03196F5CF58
:10117000AFEFB0E0FE01EA0FFB1F80818295807F18
:10118000F901EE0FFF1FE158FE4F81839181119607
:10119000AC0FBD1F8C918F70890F8183FE0190E190
:1011A000A0E080818C3209F49150AF5F992329F03F
:1011B000A23511F03196F5CFAFEF4D5F5F4FB0E044
:1011C000FE01EA0FFB1F80818295807FFA01EE0FFE
:1011D000FF1FE158FE4F808390811196AC0FBD1F19
:1011E0008C918F70890F8083FE0123E190E08081D4
:1011F0008C3209F42150892F8F5F222331F0982FF0
:10120000823511F03196F3CF8FEF90E0FE01E80FB9
:10121000F91F20812295207FFA01EE0FFF1FE15870
:10122000FE4F218321810196C80FD91F88818F70BD
:10123000820F8183DF91CF910895CF93DF93C09187
:10124000AB01D091AC01FE0191E0A0E080818C3235
:1012500009F49150AF5F992329F0A23511F031962E
:10126000F5CFAFEFB0E0FE01EA0FFB1F9081929542
:10127000907F90930602FD013196EC0FFD1F808157
:101280008F70890F80930602FD013296EC0FFD1FCF
:1012900090819295907F90930702FD013396EC0F19
:1012A000FD1F80818F70890F809307021496FE01C5
:1012B000EA0FFB1F90819295907F90930802119600
:1012C000AC0FBD1F8C918F70890F80930802FE01B7
:1012D00022E090E080818C3209F42150892F8F5FC9
:1012E000222331F0982F823511F03196F3CF8FEF12
:1012F000AE01480F511D9A01E9E6F2E0DA018C9146
:101300008C3241F0D9018D919D018193B2E0E33798
:10131000FB07A1F7FE0123E090E080818C3209F405
:101320002150892F8F5F222331F0982F823511F0C1
:101330003196F3CF8FEFFE01E80FF11D808180938E
:101340005F02FE0124E090E080818C3209F421509C
:10135000892F8F5F222331F0982F823511F031963B
:10136000F3CF8FEFAE01480F511D9A01EFE9F1E085
:10137000DA018C918C3241F0D9018D919D018193DC
:10138000B1E0E93AFB07A1F7FE0125E090E080819A
:101390008C3209F42150892F8F5F222331F0982F4E
:1013A000823511F03196F3CF8FEFFE01E80FF11D7A
:1013B000808180930A02FE0129E090E080818C32D6
:1013C00009F42150892F8F5F222331F0982F823525
:1013D00011F03196F3CF8FEFAE01480F511D9A01F6
:1013E000EAE5F1E0DA018C918C3241F0D9018D917E
:1013F0009D018193B1E0EF35FB07A1F7FE012AE0E3
:1014000090E080818C3209F42150892F8F5F222354
:1014100031F0982F823511F03196F3CF8FEFFE0126
:10142000E80FF11D808180937001FE0127E090E0BC
:1014300080818C3209F42150892F8F5F222331F073
:10144000982F823511F03196F3CF8FEF90E0FE01A7
:10145000E80FF91F20812093AA010196C80FD91F18
:10146000888180937302DF91CF910895CF93DF93AA
:10147000C091AB01D091AC0140E050E0242F2D5F32
:10148000FE0190E080818C3209F42150892F8F5F1A
:10149000222331F0982F823511F03196F3CF8FEF60
:1014A000E82FF0E09E012E0F3F1FD9018C91BA0169
:1014B0006F587E4F8C3271F08C918295807FDB016A
:1014C0008C939C913196EC0FFD1F80818F70890F5A
:1014D0008C9302C0FB0110824F5F5F4F4C3051056F
:1014E00069F6FE0122E090E080818C3209F42150FF
:1014F000892F8F5F222331F0982F823511F031969A
:10150000F3CF8FEFFE01E80FF11D80818093090278
:10151000FE019FE0A0E080818C3209F49150AF5F22
:10152000992329F0A23511F03196F5CFAFEFB0E055
:10153000FE01EA0FFB1F808180936001FD0131965F
:10154000EC0FFD1F8081809361011296FE01EA0F6E
:10155000FB1F8081809362011196AC0FBD1F8C919F
:1015600080936301FE0190E1A0E080818C3209F458
:101570009150AF5F992329F0A23511F03196F5CF44
:10158000AFEFB0E0FE01EA0FFB1F808180936501A1
:10159000FD013196EC0FFD1F80818093660112964C
:1015A000FE01EA0FFB1F8081809367011196AC0F4B
:1015B000BD1F8C9180936801FE0121E190E0808144
:1015C0008C3209F42150892F8F5F222331F0982F1C
:1015D000823511F03196F3CF8FEF90E0FE01E80FE6
:1015E000F91F208120936A01FC013196EC0FFD1F49
:1015F000208120936B010296FE01E80FF91F2081E4
:1016000020936C010196C80FD91F888180936D01CA
:10161000DF91CF910895A091AB01B091AC01FD0194
:1016200029E090E080818C3209F42150892F8F5F6E
:10163000222331F0982F823511F03196F3CF8FEFBE
:1016400090E0FD01E80FF91F208120936202FC0168
:101650003196EA0FFB1F208120937402FC01329621
:10166000EA0FFB1F208120937502FC013396EA0FDD
:10167000FB1F2081209303020496FD01E80FF91F50
:101680002081209360020196A80FB91F8C9180934E
:101690000B020895982F20E030E0F901EF58FE4F3B
:1016A0008081891711F481E008952F5F3F4F2C301E
:1016B000310599F780E00895BC01E0E0F0E0DB013E
:1016C000AE0FBF1F8C918A3229F03196E335F105B8
:1016D000B1F738C0E235B0F511968C91282F30E083
:1016E0008A3340F02753304054E0220F331F5A957D
:1016F000E1F706C044E0220F331F4A95E1F730704E
:10170000E60FF71F8281482F50E08A3318F04753C5
:10171000504002C04F705070420F531FFB0161E0F8
:1017200020E030E081818A3239F090E028273927A3
:101730006F5F31966235B1F780E04217530719F4B5
:1017400081E0089580E00895FC0190E080818C3272
:1017500009F46150892F8F5F662331F0982F82350D
:1017600011F03196F3CF8FEF0895AF92BF92DF92D1
:10177000EF92FF920F931F93DF93CF930F92CDB70A
:10178000DEB7062FE42EE82FF0E0EE0FFF1FE15842
:10179000FE4FD180908120E030E0F901EF58FE4FFC
:1017A0008081891719F481E0898306C02F5F3F4F3C
:1017B0002C30310591F7198284E20E945E0213E019
:1017C000019F102D1124F7E0FF2EF10E8F2D0E94A6
:1017D0005E02AE2CBB24C501E3E0880F991FEA9599
:1017E000E1F78E500E945E02012F055F802F0E945C
:1017F0005E02C50173E0880F991F7A95E1F70297A1
:10180000E82E0E945E0280E00E945E023D2D33358C
:1018100008F032E5832F82958F702AE0829FC00105
:1018200011243F70380F369536951DE0131B12308A
:1018300008F184E20E945E028F2D0E945E02EEEFAC
:10184000FFEFAE0EBF1E63E0AA0CBB1C6A95E1F76A
:10185000812F8A0D0E945E02802F0E945E028E2DD3
:101860000E945E02F981F13011F48FEF01C08FE028
:101870000E945E020F90CF91DF911F910F91FF9018
:10188000EF90DF90BF90AF9008951F9319E084E22E
:101890000E945E0287E00E945E02812F0E945E022B
:1018A00089E30E945E02812F0E945E028FEF0E94F8
:1018B0005E02185E113559F71F910895AF92BF92DD
:1018C000CF92DF92EF92FF920F931F93CF93DF930C
:1018D00080914F01823021F080914F018730B1F427
:1018E0009091010280915F01981730F09091AD01C5
:1018F0008091A901981710F40E946402809101025E
:1019000080935F018091AD018093A90180910102D4
:10191000873118F086E18093010286E760E040E0BD
:101920000E941D0389E661E040E00E941D0383E7F9
:1019300062E040E00E941D038AE363E040E00E9411
:101940001D038091010282958F70805D64E040E00C
:101950000E941D03809101028F70805D65E040E070
:101960000E941D0380E266E040E00E941D0385E7BF
:1019700067E040E00E941D0383E768E040E00E94CA
:101980001D0385E669E040E00E941D0384E66AE0ED
:1019900040E00E941D038AE36BE040E00E941D03CB
:1019A0008091AA016CE040E00E941D0380917302C7
:1019B0006DE040E00E941D0380E26EE040E00E9486
:1019C0001D03809109026FE040E00E941D03809199
:1019D0000902823310F480E201C084E660E140E055
:1019E0000E941D0380910102B090010282958F70C8
:1019F0002AE0829FC00111242FE0B222B80EDD241C
:101A000083E0E82EC0E0D0E039C086E0C81621F4BB
:101A1000DD2406E0E02E06C0ECE0CE1619F4DD244D
:101A200019E0E12E8E01000F111F01581E4FF80121
:101A30008081FD2CF39482958F70805D6D2D4E2DED
:101A40000E941D03F8018081AF2CA3948F70805DEC
:101A50006F2D4E2D0E941D03F801818181818336F7
:101A600028F48C2D6D2D4E2D0E94B50BDA2CD394BD
:101A700080E26A2D4E2D0E941D032196CC2ECB159F
:101A800020F20E94450CDF91CF911F910F91FF90A2
:101A9000EF90DF90CF90BF90AF9008958091470175
:101AA0008823B1F080910402813051F0813028F018
:101AB000823049F0833061F409C00E94EF04089538
:101AC0000E94610508950E945E0C08950E947107AE
:101AD0000895CF93DF93EC012396CE0162E171E08C
:101AE00043E050E00E94B40E009719F40E94B3073F
:101AF00023C0CE0166E171E043E050E00E94B40EE5
:101B0000009719F40E941D0917C0CE016AE171E027
:101B100043E050E00E94B40E009719F40E94360A88
:101B20000BC0CE016EE171E043E050E00E94B40EC4
:101B3000009711F40E940B0BDF91CF9108950F9342
:101B40001F93CF93DF9382E084B915B886E087B9FD
:101B500080E388B982E38AB988E08BB98EEA91E0A4
:101B60009093AC018093AB0190937E0180937D01B3
:101B700010925701809157018093560110920802EC
:101B8000109207021092060288E780936002809309
:101B90000B0280937502809303028093620280930C
:101BA0006102809374028091040280930502109276
:101BB0005F0180915F01809301021092A9018091E1
:101BC000A9018093AD01F8941092C50083E380933E
:101BD000C4001092C00080E98093C10086E0809329
:101BE000C20082E084BD83E085BD8DE787BD809122
:101BF0006E00826080936E00789480E090E020ED2B
:101C000037E0F9013197F1F7019685369105C9F76B
:101C10000E9482025D9A80E090E020ED37E0F901B9
:101C20003197F1F7019685369105C9F70E946D0449
:101C300080E065E042E251E00E948E0480E090E0A6
:101C400020ED37E0F9013197F1F7019643E0893E45
:101C50009407C1F780E065E044E351E00E948E0400
:101C60000EEA11E0CCE0D2E090915701809156014C
:101C7000981709F440C080915601882329F4D09325
:101C8000AC01C093AB0104C01093AC010093AB0155
:101C90008091AB019091AC010E945C0B8130D1F43A
:101CA0008091AB019091AC010E94690D8091560129
:101CB0008093570180910402833011F40E947107D0
:101CC000809104028330B9F480E260E046E00E9433
:101CD0001D0311C080910402833049F4E091AB01EF
:101CE000F091AC01808160E046E00E941D0380918C
:101CF00056018093570180915101882341F0109241
:101D000051010E94B704882311F00E944E0D80916A
:101D10005201882311F010925201809153018823BF
:101D200021F0109253010E944E0D8091540188239E
:101D300011F01092540180915501882309F494CF39
:101D400080914801882331F080914801815080932F
:101D5000480107C080914701882319F05D981092CF
:101D600047011092550180CFFB01DC0141505040EA
:101D700030F08D910190801919F40020B9F7881B7B
:081D8000990B0895F894FFCFC0
:101D8800204E4D4541203936303020384E31202103
:101D98002000475356004747410047534100524DE2
:101DA800430020204750532D3936303020384E31EB
:101DB800202120002020202020202020202020203A
:0A1DC8002020202020000301090064
:00000001FF
