:100000000C9424010C9441010C94CA010C944101FC
:100010000C9441010C9441010C9441010C94410158
:100020000C9441010C9441010C9441010C94410148
:100030000C9441010C9441010C944F010C9441012A
:100040000C9441010C9441010C9441010C94410128
:100050000C9441010C9441010C9441010C94410118
:100060000C9441010C944101000000000000005F6D
:1000700000000007000700147F147F14242A7F2A41
:1000800012C4C81026463649552250020502000007
:10009000001C2241000041221C0014083E081408E4
:1000A000083E0808000050300010101010100060CA
:1000B00060000020100804023E5149453E00427F86
:1000C0004000426151494622414949361814127F85
:1000D0001027454545393C4A494930017109050316
:1000E0003649494936064949291E0036360000007E
:1000F0005636000008142241001414141414004150
:100100002214080201510906324959513E7E11114B
:10011000117E7F494949363E414141227F4141227A
:100120001C7F494949417F090909013E4149497AF2
:100130007F0808087F00417F41002040413F017F48
:10014000081422417F404040407F020C027F7F0420
:1001500008107F3E4141413E7F090909063E415159
:10016000215E7F09192946464949493101017F012C
:10017000013F4040403F1F2040201F3F4038403F4C
:100180006314081463070870080761514945430068
:100190007F414100552A552A550041417F00040204
:1001A0000102044040404040000102040020545439
:1001B00054787F48444438384444442038444448C0
:1001C0007F3854545418087E0901020C5252523E92
:1001D0007F0804047800447D40002040443D007FB7
:1001E0001028440000417F40007C041804787C08FB
:1001F00004047838444444387C1414140808141453
:10020000187C7C080404084854545420043F44409B
:10021000203C4040207C1C2040201C3C4030403C86
:1002200044281028440C5050503C4464544C440022
:100230000836410000007F00000041360800080831
:100240002A1C08081C2A080811241FBECFEFD4E07E
:10025000DEBFCDBF12E0A0E0B1E0E6ECF6E202C006
:1002600005900D92AE34B107D9F712E0AEE4B2E0DA
:1002700001C01D92A837B107E1F70E9403020C9458
:1002800061130C94000082E084BD83E085BD8EE79D
:1002900087BDEEE6F0E080818260808308951F9242
:1002A0000F920FB60F9211248F939F9380914E025D
:1002B00090914F02019690934F0280934E0280914D
:1002C00050028F5F80935002809150028A3050F02C
:1002D00010925002809151028F5F8093510281E011
:1002E00080935502809151028A3050F01092510251
:1002F000809152028F5F8093520281E08093560278
:10030000809152028A3050F0109252028091530232
:100310008F5F8093530281E0809357028091530254
:100320008A3050F010925302809154028F5F809374
:10033000540281E08093580280915402863028F064
:100340001092540281E0809359029F918F910F90F7
:100350000FBE0F901F901895E4ECF0E01182108210
:10036000549A83EC8093C20088E08093C10082E0BD
:1003700090E091838083089520E030E040ED57E0E5
:1003800005C0FA013197F1F72F5F3F4F82179307AE
:10039000C4F708951F920F920FB60F9211242F9356
:1003A0003F934F935F936F937F938F939F93AF93FD
:1003B000BF93EF93FF93E99880E388B98EE1809330
:1003C0005D0280936F020E94E103F89482E084BD95
:1003D00083E085BD8EE787BDEEE6F0E08081826038
:1003E00080837894FF91EF91BF91AF919F918F910E
:1003F0007F916F915F914F913F912F910F900FBE21
:100400000F901F9018951F9386E084B915B887B98F
:1004100080E388B982E38AB988E08BB98091680269
:100420008093690210926B0281E0809362028EE1F8
:1004300080936F02F89482E084BD83E085BD8EE7EF
:1004400087BD80916E00826080936E001092C5001F
:100450001092C400549A83EC8093C20088E0809389
:10046000C10082E090E09093C5008093C40078942E
:100470000E94E1030E942A030E94780C90916C0272
:10048000933048F481E080936D0290935C0284E0A5
:100490008093640202C010926D020E943512809116
:1004A0005502882341F0109255020E94551288236C
:1004B00011F00E94351280915602882349F1109262
:1004C000560280916302882379F080915202853030
:1004D00039F080915202873019F080E090E002C03C
:1004E00088E893E10E94160B8091520265E00E9419
:1004F000F112992369F480916B02813049F44091A3
:1005000001014827409301018EE36FE10E94AE058F
:1005100080915702882309F450C0109257028091AD
:100520006302882381F020917402822F90E0029769
:1005300024F021502093740206C01092630280E0E0
:1005400090E00E94160B10916B02113001F5809122
:100550005A0290915B0218161906CCF480915A0247
:1005600090915B02019790935B0280935A020E94E4
:10057000351280915A0290915B02892B41F41092BE
:100580006B021093630280917502809374028091D4
:100590006B02813091F080916F02882331F080915D
:1005A0006F02815080936F0208C08091620288239D
:1005B00021F00E9441030E94010B80915802882380
:1005C00011F01092580280915902882309F467CFE4
:1005D0001092590264CF2998419A8093C600809165
:1005E000C00086FFFCCF8091C00080648093C00073
:1005F000299A419A0895299841988093C60080913C
:10060000C00086FFFCCF8091C00080648093C00052
:10061000299A419A0895EF92FF920F931F93182FF2
:10062000F62E042FE22E85E10E94FB02812F0E940C
:10063000FB02802F0E94FB0285E70E94FB028F2DA8
:100640000E94FB028E2D0E94FB021F910F91FF90D2
:10065000EF90089584E20E94FB0287E00E94FB0273
:1006600080E00E94FB0289E30E94FB028FE40E946B
:10067000FB0280E00E94FB0280E197E20197F1F724
:1006800008958EEA0E94FB025D98289A80ED97E01B
:1006900028EC30E0F9013197F1F70197D9F7289864
:1006A00010926202089585E10E94FB0287E00E9499
:1006B000FB0289E30E94FB0285E70E94FB0280E0C7
:1006C0000E94FB028FE40E94FB0286E80E94FB026C
:1006D00081E80E94FB028CE20E94FB028EEB0E94EA
:1006E000FB0280E00E94FB028CEB0E94FB028FE089
:1006F0000E94FB0280EA0E94FB0281E40E94FB024E
:1007000086EA0E94FB0288EA0E94FB028FE40E94B4
:10071000FB0281EB0E94FB0282E20E94FB0282EB61
:100720000E94FB0286E40E94FB0280EB0E94FB0217
:1007300088E00E94FB0284EB0E94FB0280E00E94A2
:10074000FB0283EB0E94FB0280EA0E94FB028FEB1C
:100750000E94FB028DE00E94FB0288EB0E94FB02DC
:1007600081E00E94FB0281E10E94FB0282E20E9482
:10077000FB0282E30E94FB0283E40E94FB0284E509
:100780000E94FB0285E60E94FB0286E70E94FB02B4
:100790008EEA0E94FB028DEA0E94FB0282E00E9428
:1007A000FB028EEE92E028EC30E0F9013197F1F790
:1007B0000197D9F784EA0E94FB0283EE0E94FB02B4
:1007C000089586E087B984B942988AE18A95F1F75D
:1007D000429A0E945303289A5D9A80E991E028EC9E
:1007E00030E0F9013197F1F70197D9F728988FEAAE
:1007F0000E94FB0281E0809362020895AF92BF9253
:10080000CF92DF92EF92FF920F931F93982F062FB4
:10081000F42E8052803608F090E2E5E09E9FF001D1
:100820001124E05AF040CF010196E859FF4FA490FF
:100830009C012F5F3F4F88599F4FFC01B490C90125
:10084000019628593F4FF901C490FC01E859FF4F28
:10085000D49087599F4FFC01E49085E10E94FB02F0
:1008600013E0019F102D1124812F895F0E94FB024C
:10087000812F875F0E94FB0285E70E94FB028F2D7C
:1008800090E023E0880F991F2A95E1F7182F0E9426
:10089000FB02812F895F0E94FB0211E000E0812FA3
:1008A0008A2111F490E001C090EF812F8B2109F093
:1008B0009F60892F0E94EB02812F8C2111F490E020
:1008C00001C090EF812F8D2109F09F60892F0E9438
:1008D000EB02812F8E2109F080EF0E94EB020F5F67
:1008E000083011F0110FDBCF1F910F91FF90EF90A7
:1008F000DF90CF90BF90AF9008954F925F926F922C
:100900007F928F929F92AF92BF92CF92DF92EF929F
:10091000FF920F931F93CF93DF936C01942EFC01F2
:1009200084910894C11CD11CF60124910894C11C27
:10093000D11CF60194914EEF5FEFC40ED51E8130AD
:1009400009F051C0E3E0EE2EF12C77E0472E460E81
:100950003DC0FE0164902196FE017490219785E1CF
:100960000E94FB028B2D0E94FB028B2D0E94FB023A
:1009700085E70E94FB02882D0E94FB02852D0E94C4
:10098000FB0211E000E0812F862111F490E001C00C
:1009900090EF812F872109F09F60892F0E94EB0241
:1009A0000F5F083011F0110FEECFA3942296B3948D
:1009B000FAE2AF1671F624E530E0E20EF31E3BEFEB
:1009C000E31631E0F30609F458C09394892C880C9F
:1009D000880C880C67E0562E580CE601CE0DDF1D02
:1009E000B42CAA24B6CF622E7724892F90E0869D5E
:1009F000E001879DD00D969DD00D1124D695C79509
:100A000022964C019694879436E0A32EA80CBB2422
:100A10002FC085E10E94FB0287E00E94FB028A2D25
:100A20000E94FB0285E70E94FB028B2D0E94FB02C5
:100A30008B2D0E94FB027601EC0EFD1E8E010FC075
:100A400001501040F7018491982F92959F708295E4
:100A5000807F890F0E94EB020894E108F1089E0153
:100A6000201B822F90E08815990550F3B394E8017C
:100A70008B2D90E08615970560F2DF91CF911F9145
:100A80000F91FF90EF90DF90CF90BF90AF909F902D
:100A90008F907F906F905F904F900895CF93DF93EA
:100AA00085E10E94FB0287E00E94FB0289E30E942D
:100AB000FB0285E70E94FB0280E00E94FB028FE4BC
:100AC0000E94FB02C0E0D0E080E00E94EB02219691
:100AD0008FE0C03FD807C1F7DF91CF910895809391
:100AE000C6008091C00086FFFCCF8091C00080646A
:100AF0008093C00008950F931F93CF93DF93982F97
:100B0000062FEA0108C0192F1F5F692F402F0E948E
:100B1000FE032196912F8881882311F0913198F35B
:100B2000DF91CF911F910F9108951F9319E084E2F7
:100B30000E94FB0287E00E94FB02812F0E94FB02C1
:100B400089E30E94FB02812F0E94FB028FEF0E942B
:100B5000FB02185E113559F71F910895EF92FF922D
:100B60000F931F93182F062FE42E84E20E94FB029E
:100B70001695812F0E94FB02802F0E94FB02F12E0E
:100B8000F3948F2D0E94FB02802F8D5F0E94FB0249
:100B900081E0E81611F48FEF01C083E30E94FB02AD
:100BA00084E20E94FB02812F0E94FB02802F875F5C
:100BB0000E94FB028F2D0E94FB02802F845F0E9407
:100BC000FB0281E0E81611F48FEF01C083E30E947D
:100BD000FB021F910F91FF90EF900895CF92DF924B
:100BE000EF92FF920F931F93E62EF42ED22EC02E7B
:100BF000082F095F87E0F80EF01608F457C0261793
:100C000008F454C000FD1AC084E20E94FB02102FB9
:100C100016951150812F0E94FB028E2D0E94FB021F
:100C2000812F0E94FB028D2D0E94FB0281E0C816DD
:100C300011F48FE001C083E00E94FB02F0FE1DC0B2
:100C400084E20E94FB021F2D16951F5F812F0E94D8
:100C5000FB028E2D0E94FB02812F0E94FB028D2D34
:100C60000E94FB0281E0C81611F480EF01C080E30E
:100C70000E94FB020F1508F4FA9484E20E94FB0222
:100C8000802F86950E94FB028E2D0E94FB028F2DE5
:100C900086950E94FB028D2D0E94FB0281E0C81602
:100CA00011F48FEF01C083E30E94FB021F910F91AB
:100CB000FF90EF90DF90CF900895BF92CF92DF9298
:100CC000EF92FF920F931F93CF93DF93E82E162F8F
:100CD000B42E682F615F412F425F282F2D5E812F38
:100CE0008C5F0B2D0E94EE05FF2420E1C22ED12C3B
:100CF000CE0CDF1C012F10E0075F1F4FA801559598
:100D0000479509501040E7016296CA01B6019E015D
:100D10000E940B03BB2041F08FE00E94EB028FEF9B
:100D20000E94EB028FE007C083E00E94EB0283E3A6
:100D30000E94EB0283E00E94EB02A801495E5F4F34
:100D400055954795CA01B6014F5F5F4F9E010E94BE
:100D50000B03BB2071F08FEF0E94EB0280E00E943A
:100D6000EB028FEF0E94EB0280EF0E94EB028FEF0D
:100D70000DC083E30E94EB0280E00E94EB0283E35C
:100D80000E94EB0280E30E94EB0283E30E94EB02ED
:100D900080E00E94EB02DF91CF911F910F91FF90B5
:100DA000EF90DF90CF90BF900895AF92BF92DF9207
:100DB000EF92FF920F931F93CF93DF93082F162F7D
:100DC000D42EE82EFF24C62FD0E02796D595C795C0
:100DD0005E010894A11CB11CB7016F5F7F4F9701A2
:100DE0002D5F3F4FCE01A5010E940B03DD2089F04E
:100DF00080EF0E94EB0280E00E94EB028FEF0E94E6
:100E0000EB0280E00E94EB028FEF0E94EB0280EF8A
:100E100010C080E30E94EB0280E00E94EB0283E3BB
:100E20000E94EB0280E00E94EB0283E30E94EB024F
:100E300080E30E94EB02202F235F812F0C5F602F45
:100E40001F5F412F0D2D0E94EE059701205F3F4F40
:100E5000CE014EE050E0E40EF51EB701A5010E9460
:100E60000B03DD2071F08FEF0E94EB0280EF0E94F8
:100E7000EB028FEF0E94EB0280E00E94EB0280EF1A
:100E80000DC083E30E94EB0280E30E94EB0283E348
:100E90000E94EB0280E00E94EB0280E30E94EB02E2
:100EA00080E00E94EB02DF91CF911F910F91FF90A4
:100EB000EF90DF90BF90AF900895AF92BF92DF9216
:100EC000EF92FF920F931F93CF93DF93082F162F6C
:100ED000D42EE82EFF24C62FD0E02796D595C795AF
:100EE0005E010894A11CB11CB7016E5E7F4F970193
:100EF0002C5E3F4FCE01A5010E940B03DD2089F03F
:100F000080EF0E94EB0280E00E94EB028FEF0E94D4
:100F1000EB0280E00E94EB028FEF0E94EB0280EF79
:100F200010C080E30E94EB0280E00E94EB0283E3AA
:100F30000E94EB0280E00E94EB0283E30E94EB023E
:100F400080E30E94EB02202F225E812F0B5E602F38
:100F50001F5F412F0D2D0E94EE0597012F5D3F4F22
:100F6000CE014FE150E0E40EF51EB701A5010E944D
:100F70000B03DD2071F08FEF0E94EB0280EF0E94E7
:100F8000EB028FEF0E94EB0280E00E94EB0280EF09
:100F90000DC083E30E94EB0280E30E94EB0283E337
:100FA0000E94EB0280E00E94EB0280E30E94EB02D1
:100FB00080E00E94EB02DF91CF911F910F91FF9093
:100FC000EF90DF90BF90AF900895BF92CF92DF92E5
:100FD000EF92FF920F931F93CF93DF93E82E162F7C
:100FE000B42E682F615E412F435F282F2E5D812F25
:100FF0008B5F0B2D0E94EE05FF24E0E2CE2ED12C5C
:10100000CE0CDF1C012F10E0075F1F4FA801559584
:10101000479509501040E701A296CA01B6014F5FFB
:101020005F4F9E010E940B03BB2089F080E00E946D
:10103000EB028FEF0E94EB028FE00E94EB028FEF3A
:101040000E94EB028FEF0E94EB028FEF10C080E056
:101050000E94EB0283E30E94EB0283E00E94EB021A
:1010600083E30E94EB0283E30E94EB0283E30E948E
:10107000EB02A8014A5E5F4F55954795CA01B6013C
:101080004F5F5F4F9E010E940B03BB2089F080EFF2
:101090000E94EB0280E00E94EB028FEF0E94EB02C5
:1010A00080E00E94EB028FEF0E94EB0280EF10C005
:1010B00080E30E94EB0280E00E94EB0283E30E9447
:1010C000EB0280E00E94EB0283E30E94EB0280E3EC
:1010D0000E94EB02DF91CF911F910F91FF90EF9053
:1010E000DF90CF90BF900895AF92BF92DF92EF92C2
:1010F000FF920F931F93CF93DF93082F162FD42EB9
:10110000E82EFF24C62FD0E06996D595C7955E01DD
:101110000894A11CB11CB7016E5E7F4F97012C5E35
:101120003F4FCE01A5010E940B03DD2089F080E036
:101130000E94EB0280EF0E94EB028FE00E94EB0224
:1011400080EF0E94EB028FEF0E94EB0280EF10C055
:1011500080E00E94EB0280E30E94EB0283E00E94A9
:10116000EB0280E30E94EB0283E30E94EB0280E348
:101170000E94EB02202F225E812F8F5E0B5E602F7C
:101180001E5E412F0D2D0E94EE0597012F5D3F4FF2
:10119000CE014FE150E0E40EF51EB701A5010E941B
:1011A0000B03DD2089F08FEF0E94EB0280EF0E949D
:1011B000EB028FE00E94EB0280EF0E94EB0280E0E6
:1011C0000E94EB0280EF10C083E30E94EB0280E3F9
:1011D0000E94EB0283E00E94EB0280E30E94EB029C
:1011E00080E00E94EB0280E30E94EB02DF91CF914E
:1011F0001F910F91FF90EF90DF90BF90AF900895F7
:10120000AF92BF92DF92EF92FF920F931F93CF9313
:10121000DF93082F162FD42EE82EFF24C62FD0E000
:101220006996D595C7955E010894A11CB11CB701BC
:101230006F5F7F4F97012D5F3F4FCE01A5010E9449
:101240000B03DD2089F080E00E94EB0280EF0E941A
:10125000EB028FE00E94EB0280EF0E94EB028FEF27
:101260000E94EB0280EF10C080E00E94EB0280E35E
:101270000E94EB0283E00E94EB0280E30E94EB02FB
:1012800083E30E94EB0280E30E94EB02202F235FA6
:10129000812F8F5E0C5F602F1E5E412F0D2D0E94EF
:1012A000EE059701205F3F4FCE014EE050E0E40E87
:1012B000F51EB701A5010E940B03DD2089F08FEF19
:1012C0000E94EB0280EF0E94EB028FE00E94EB0293
:1012D00080EF0E94EB0280E00E94EB0280EF10C0E2
:1012E00083E30E94EB0280E30E94EB0283E00E9412
:1012F000EB0280E30E94EB0280E00E94EB0280E3BD
:101300000E94EB02DF91CF911F910F91FF90EF9020
:10131000DF90BF90AF900895DF92EF92FF920F930E
:101320001F93CF93DF93F82E162FD42E462F435FB3
:10133000282F2D5F862F8B5F6F2D0D2D0E94EE05C0
:10134000012F10E0075F1F4FA801559547950950E1
:101350001040CF2DD0E082E0E82EF12CEC0EFD1EE7
:10136000CA01BE014F5F5F4F97010E940B03DD2052
:1013700089F08FEF0E94EB028FEF0E94EB028FE06B
:101380000E94EB028FEF0E94EB0280E00E94EB02D2
:101390008FEF10C083E30E94EB0283E30E94EB0215
:1013A00083E00E94EB0283E30E94EB0280E00E9454
:1013B000EB0283E30E94EB02A8014A5E5F4F559562
:1013C0004795CA01BE014F5F5F4F97010E940B0313
:1013D000DD2071F08FEF0E94EB0280EF0E94EB02A4
:1013E0008FEF0E94EB0280E00E94EB0280EF0DC0C5
:1013F00083E30E94EB0280E30E94EB0283E30E94FE
:10140000EB0280E00E94EB0280E30E94EB0280E0AE
:101410000E94EB02DF91CF911F910F91FF90EF900F
:10142000DF900895FF920F931F93182F062FF42E2D
:10143000882339F0823029F0863019F040E0883076
:1014400009F441E0802F6F2D0E945D07812F8150AC
:10145000833010F440E004C040E0173009F041E070
:10146000802F6F2D0E94D506113011F440E004C08A
:1014700040E0143009F041E0802F6F2D0E948C096C
:10148000113039F0143029F040E0173019F041E004
:1014900001C040E0802F6F2D0E94E50740E0812FC2
:1014A0008550823008F041E0802F6F2D0E940009A6
:1014B00040E0123009F041E0802F6F2D0E94740847
:1014C000123010F440E006C040E0173009F441E06B
:1014D00081E04827802F6F2D0E945D061F910F919C
:1014E000FF9008959C01F999FECF32BD21BDF89A75
:1014F00080B508959C01F999FECF1FBA32BD21BD78
:1015000060BD0FB6F894FA9AF99A0FBE08958091CB
:101510006E024AE0849FC001112420916102820F73
:10152000911D2CE330E0BC01629FC001639F900DD0
:10153000729F900D112490935B0280935A02209128
:101540005A0230915B0280916A02280F311D80910E
:101550005F02849FC0011124280F391F30935B0262
:1015600020935A0281E080936B0280915C02882371
:1015700049F480915A0290915B0290937702809394
:1015800076020895813049F480915A0290915B026D
:1015900090936602809365020895823041F48091B1
:1015A0005A0290915B0290937302809372020895A5
:1015B00010926B0280915C02882329F4809176025C
:1015C0009091770206C0813049F480916502909134
:1015D000660290935B0280935A020895823041F430
:1015E000809172029091730290935B0280935A02F1
:1015F000089582E080936B02089581E080936B02EE
:101600000895EEE6F0E080818D7F8083299818B8F8
:1016100017B8E99A83B7817F846083BF83B78160FD
:1016200083BF889583B78E7F83BF089585369105E4
:1016300020F1F89410928000109281009C0140E00B
:1016400050E064E274EF80E090E00E94241330E008
:1016500030938700209386008091860090918700C8
:10166000909389008093880080E1809380008BE0D4
:1016700080938100229A78940895F894229880911A
:1016800080008F7E8093800080918100847F809392
:1016900081007894089580915E02882321F0813042
:1016A00009F05CC03DC080915A0290915B0218160F
:1016B00019067CF480916B02813011F482E006C03F
:1016C00080916B02823009F049C081E080936B0207
:1016D00008951092630280E090E00E94160B109231
:1016E0006B0280915C02882329F4809176029091AC
:1016F00077020DC0813029F48091650290916602D5
:1017000006C0823041F480917202909173029093EE
:101710005B0280935A0210926D0210926302089548
:1017200010926B0280915C02882329F480917602EA
:10173000909177020DC0813029F4809165029091DB
:10174000660206C0823041F4809172029091730269
:1017500090935B0280935A0210926D0208959091CB
:101760006D02913091F0913030F09230C1F09330B1
:1017700009F057C04CC080915C02882311F0815061
:1017800001C083E080935C02089580916402882305
:1017900011F0815001C085E080936402089580912A
:1017A0005A0290915B021816190654F480915E0259
:1017B000882311F0815001C081E080935E0208957A
:1017C0001092630280E090E00E94160B10926B0270
:1017D00080915C02882329F48091760290917702AF
:1017E0000DC0813029F4809165029091660206C097
:1017F000823041F4809172029091730290935B0267
:1018000080935A0210926D021092630208958091A3
:101810007002882321F08150809370020895909384
:101820007002089580916D02813099F0813030F01E
:101830008230D1F0833009F05AC04FC080915C02F1
:10184000833020F48F5F80935C02089510925C02D5
:10185000089580916402853020F48F5F8093640244
:10186000089510926402089580915A0290915B024B
:10187000181619065CF480915E02882321F481E039
:1018800080935E02089510925E02089510926302A2
:1018900080E090E00E94160B10926B0280915C0237
:1018A000882329F480917602909177020DC08130CF
:1018B00029F4809165029091660206C0823041F45D
:1018C000809172029091730290935B0280935A020E
:1018D00010926D021092630208958091700283301D
:1018E00020F48F5F80937002089510927002089523
:1018F000F999FECF86E090E092BD81BDF89A80B55F
:10190000809375028A3018F085E080937502F9990A
:10191000FECF87E090E092BD81BDF89A80B58093BC
:101920006C02843010F010926C0280E090E062E76C
:101930007AE00E94C612909377028093760280919B
:101940007602909177028D52914030F08CE291E0D6
:10195000909377028093760282E090E062E77AE0EB
:101960000E94C61290937302809372028091720259
:10197000909173028D52914030F08EE091E09093FF
:1019800073028093720284E090E062E77AE00E9442
:10199000C6129093660280936502809165029091D1
:1019A00066028057974120F01092660210926502FD
:1019B00080915C02882371F5809176029091770284
:1019C00068E572E00E94FD1260936E0280917602DB
:1019D00090917702E6EFFFEF6E9F202D11246CE3CC
:1019E00070E00E94FD12260F209361028091760222
:1019F000909177026CE370E00E94FD126AE070E063
:101A00000E94FD12262F60935F02809176029091D2
:101A100077022FC08130C1F58091650290916602F6
:101A200068E572E00E94FD1260936E02809165028B
:101A300090916602E6EFFFEF6E9F202D11246CE37C
:101A400070E00E94FD12260F2093610280916502D2
:101A5000909166026CE370E00E94FD126AE070E013
:101A60000E94FD12262F60935F0280916502909183
:101A700066022E9F202D11246CE370E00E94FD125F
:101A8000280F20936A0208958230B1F58091720286
:101A90009091730268E572E00E94FD1260936E02FD
:101AA0008091720290917302E6EFFFEF6E9F202DFE
:101AB00011246CE370E00E94FD12260F2093610256
:101AC00080917202909173026CE370E00E94FD12AB
:101AD0006AE070E00E94FD1260935F0280917202E2
:101AE000909173026E9F202D11246CE370E00E9490
:101AF000FD12280F20936A02089580915C028330C2
:101B000018F0833061F409C00E94780C84E080935F
:101B1000640281E080936D02089580936D020895C0
:101B200020917502F999FECF1FBA86E090E092BD30
:101B300081BD20BD0FB6F894FA9AF99A0FBE209194
:101B40006C02F999FECF1FBA87E090E092BD81BD8B
:101B500020BD0FB6F894FA9AF99A0FBE60917602FA
:101B60007091770280E090E04AE75AE00E94DC1230
:101B7000609172027091730282E090E04AE75AE04D
:101B80000E94DC12609165027091660284E090E030
:101B90004AE75AE00E94DC12089580917002813079
:101BA00091F0813028F08230C9F0833001F519C0FE
:101BB00080916C02833020F48F5F80936C020895D3
:101BC00010926C02089580917502893020F48F5F25
:101BD00080937502089510927502089510926D0217
:101BE00008950E94900D10926D020E94900D08952C
:101BF00080916402823021F1833028F4882351F0EF
:101C00008130F1F512C0843089F1843020F18530C3
:101C1000B9F534C080916E02893020F48F5F8093D3
:101C20006E02089510926E020895809161028930CB
:101C300020F48F5F809361020895109261020895ED
:101C400080915F02853020F48F5F80935F0208955A
:101C500010925F02089580916A02893020F48F5FAC
:101C600080936A02089510926A0208950E94870A7A
:101C70000E94900D82E080936D02089510926D0293
:101C8000089580916D02813051F0813028F08230CA
:101C900049F0833061F409C00E947D0D08950E94CF
:101CA000F80D08950E944B0B08950E94CD0D0895E4
:101CB000CF92DF92EF92FF920F931F939C01E62E3B
:101CC000F42E68E572E00E941113462F86EF9FEF15
:101CD000689F002D1124C9016CE370E00E9411136C
:101CE000060FC9016CE370E00E941113C82E6AE070
:101CF00070E00E941113D62E442331F0842F6F2DF3
:101D00004E2D0E94120A25C08F2D6E2D40E00E949C
:101D10005D078F2D6E2D40E00E94D5068F2D6E2D14
:101D200040E00E948C098F2D6E2D40E00E94E50757
:101D30008F2D6E2D40E00E9400098F2D6E2D40E00A
:101D40000E9474088F2D6E2D40E00E945D060023D6
:101D500059F04E2D50E0440F551F440F551F802F52
:101D60006F2D0E94120A29C00E2D10E0000F111FC6
:101D7000000F111F8F2D602F40E00E945D078F2DF7
:101D8000602F40E00E94D5068F2D602F40E00E941A
:101D90008C098F2D602F40E00E94E5078F2D602F6A
:101DA00040E00E9400098F2D602F40E00E947408DF
:101DB0008F2D602F40E00E945D060E2D10E0A801DF
:101DC00033E0440F551F3A95E1F7425050408D2DB6
:101DD0006F2D0E94120A86EF9FEFD89E802D11244E
:101DE000A80123E0440F551F2A95E1F7000F111FAA
:101DF000400F511F4A5F8C0D6F2D0E94120A1F91D8
:101E00000F91FF90EF90DF90CF900895882309F015
:101E100041C060E042E051E00E947B0580E061E06B
:101E200044E151E00E947B0580E062E044E151E042
:101E30000E947B0580E063E046E251E00E947B0562
:101E400080E064E044E151E00E947B0580E065E0D1
:101E500044E151E00E947B0580E066E048E351E008
:101E60000E947B0589E066E04AE451E00E947B0520
:101E700080E067E044E151E00E947B0580E068E09B
:101E800044E151E00E947B0580E069E04EE451E0CE
:101E90000E947B0580916C02813061F0813028F0D6
:101EA000823069F08330B1F40FC087E063E040E630
:101EB00051E00EC087E063E04BE651E009C087E0E7
:101EC00063E046E751E004C087E063E041E851E0A9
:101ED0000E947B0580917502805D67E046E00E946C
:101EE000FE0380917002882329F080E267E042E0DF
:101EF0000E94FE0380917002813029F080E267E049
:101F000045E00E94FE0380917002823051F080E231
:101F100068E049E00E94FE0380E260E149E00E943F
:101F2000FE0380917002833051F080E260E049E06E
:101F30000E94FE0380E263E049E00E94FE0380917C
:101F40007002882329F48AE267E042E00E94FE03DF
:101F500080917002813029F48AE267E045E00E94B6
:101F6000FE0380917002823051F48AE268E049E019
:101F70000E94FE038AE260E149E00E94FE03809134
:101F80007002833051F48AE260E049E00E94FE036F
:101F90008AE263E049E00E94FE030895882309F085
:101FA00059C080915C02813051F0813018F082304C
:101FB00081F40AC081E060E04CE851E00EC081E0AD
:101FC00060E045E951E009C081E060E040EA51E0AD
:101FD00004C081E060E044E151E00E947B0580E0C4
:101FE00061E044E151E00E947B0580E062E044E171
:101FF00051E00E947B0580E063E044E151E00E94F3
:102000007B0580E064E044E151E00E947B058AE3C7
:1020100068E044E00E94FE0380E065E046EA51E0AB
:102020000E947B0580E066E044E151E00E947B0570
:1020300080E067E044E151E00E947B0580E068E0D9
:1020400044E151E00E947B0580E069E048EB51E00B
:102050000E947B0580916E02805D66E044E00E94F4
:10206000FE0380916102805D67E044E00E94FE0310
:1020700080915F02805D69E044E00E94FE038091F0
:102080006A02805D6AE044E00E94FE03809164027F
:10209000882329F080E266E043E00E94FE038091FD
:1020A0006402813029F080E267E043E00E94FE0391
:1020B00080916402823029F080E269E043E00E946E
:1020C000FE0380916402833029F080E26AE043E0FD
:1020D0000E94FE0380916402843051F080E26AE045
:1020E00049E00E94FE0380E260E149E00E94FE03B5
:1020F00080916402853051F080E260E049E00E9406
:10210000FE0380E265E049E00E94FE0380916402E4
:10211000882329F48AE266E043E00E94FE0380916E
:102120006402813029F48AE267E043E00E94FE0302
:1021300080916402823029F48AE269E043E00E94DF
:10214000FE0380916402833029F48AE26AE043E06E
:102150000E94FE0380916402843051F48AE26AE0B6
:1021600049E00E94FE038AE260E149E00E94FE032A
:1021700080916402853051F48AE260E049E00E9477
:10218000FE038AE265E049E00E94FE030895882389
:10219000D9F560E044E151E00E947B0580E061E018
:1021A0004AEC51E00E947B0580E062E044E151E0AE
:1021B0000E947B0580E063E04CED51E00E947B05CE
:1021C00080E064E044E151E00E947B0580E065E04E
:1021D0004EEE51E00E947B0580E066E044E151E074
:1021E0000E947B0580E067E044E151E00E947B05AE
:1021F00080E068E040E052E00E947B0580E069E01A
:1022000044E151E00E947B0580915C02882351F0FB
:1022100080E264E041E00E94FE0380E26CE041E085
:102220000E94FE0380915C02813051F080E263E005
:1022300043E00E94FE0380E26DE043E00E94FE0363
:1022400080915C02823051F080E261E045E00E94C2
:10225000FE0380E26FE045E00E94FE0380915C0295
:10226000833051F080E26AE048E00E94FE0380E2A1
:1022700060E148E00E94FE0380915C02882351F4F3
:102280008AE264E041E00E94FE038AE26CE041E001
:102290000E94FE0380915C02813051F48AE263E087
:1022A00043E00E94FE038AE26DE043E00E94FE03E9
:1022B00080915C02823051F48AE261E045E00E9444
:1022C000FE038AE26FE045E00E94FE0380915C021B
:1022D000833051F48AE26AE048E00E94FE038AE219
:1022E00060E148E00E94FE030895882309F070C071
:1022F00080915C02813051F0813018F0823089F495
:102300000AC081E060E042E152E009C081E060E0A3
:1023100045E951E004C081E060E04DE152E00E94F7
:102320007B0580916E02805D6CE040E00E94FE03C0
:1023300080916102805D6DE040E00E94FE038AE3CF
:102340006EE040E00E94FE0380915F02805D6FE0DE
:1023500040E00E94FE0380916A02805D60E140E0FF
:102360000E94FE0380E061E044E151E00E947B05B1
:1023700080E062E044E151E00E947B0580E063E0A0
:1023800044E151E00E947B0580E064E044E151E0DB
:102390000E947B0580E065E044E151E00E947B05FE
:1023A00080E066E044E151E00E947B0580E067E068
:1023B00044E151E00E947B0580E068E044E151E0A7
:1023C0000E947B0580E069E049E252E00E947B05C3
:1023D00080915A0290915B0268E044E10E94580E9D
:1023E00080916B02813039F485E068E04BE352E084
:1023F0000E947B050FC080916B02823059F485E00A
:1024000068E044E452E00E947B058EE36FE141E026
:102410000E94AE0580915E02882339F48AE263E06F
:1024200048E00E94FE038AE206C080E263E048E0E2
:102430000E94FE0380E26EE048E00E94FE0380916D
:102440005E02813039F48AE263E049E00E94FE03D3
:102450008AE206C080E263E049E00E94FE0380E277
:102460006EE049E00E94FE03089590916D02809114
:102470004D02891711F481E003C090934D0280E072
:10248000913051F0913028F0923049F0933061F45E
:1024900009C00E94C71008950E94CE0F08950E949F
:1024A000751108950E94060F08951F9380915D0293
:1024B000882339F080915D02815080935D0210E0A5
:1024C00062C034991FC08EE180936F0280916202D6
:1024D000882311F40E94E1030E94AF0B8EE18093E8
:1024E0005D02809168028F5F80936802909168021C
:1024F00080916902981731F0809168028093690297
:1025000011E001C010E04B991EC08EE180936F0274
:1025100080916202882311F40E94E1030E94410E1F
:102520008EE180935D02809168028F5F80936802E4
:102530009091680280916902981729F08091680251
:102540008093690211E035991EC08EE180936F027D
:1025500080916202882311F40E94E1030E94120C10
:102560008EE180935D02809168028F5F80936802A4
:102570009091680280916902981729F08091680211
:102580008093690211E0812F1F910895DF92EF92ED
:10259000FF920F931F937B018C01FB010995D82EAD
:1025A000C8010196F7010995982F8D2D1F910F9164
:1025B000FF90EF90DF900895DF92EF92FF920F93DC
:1025C0001F93D72E7A018C01FA010995C801019653
:1025D0006D2DF70109951F910F91FF90EF90DF90FE
:1025E0000895991B79E004C0991F961708F0961B6F
:1025F000881F7A95C9F780950895AA1BBB1B51E1E6
:1026000007C0AA1FBB1FA617B70710F0A61BB70B62
:10261000881F991F5A95A9F780959095BC01CD0107
:10262000089597FB092E07260AD077FD04D0E5DF31
:1026300006D000201AF4709561957F4F0895F6F743
:10264000909581959F4F089597FB092E05260ED0F2
:1026500057FD04D014D00AD0001C38F45095409592
:10266000309521953F4F4F4F5F4F0895F6F7909566
:102670008095709561957F4F8F4F9F4F0895A1E290
:102680001A2EAA1BBB1BFD010DC0AA1FBB1FEE1FEC
:10269000FF1FA217B307E407F50720F0A21BB30B37
:1026A000E40BF50B661F771F881F991F1A9469F7B3
:1026B00060957095809590959B01AC01BD01CF010F
:0626C0000895F894FFCF1D
:1026C60003012020202020205365747570202020CF
:1026D6002020200020202020202020202020202014
:1026E60020202020200053746172743A202020207C
:1026F6002020202020202000416C61726D3A20208D
:102706002020202020202020200073656300204FF9
:102716004B202020202020416262727563682000D1
:102726004D656E756520202020200045696572750F
:10273600687220202000436F756E74646F776E2078
:10274600005A61686E7075747A2E2E00456965723E
:102756007568723A00436F756E74646F776E3A00EF
:102766005A61686E3A0020202020206D696E3A7307
:1027760065632020202020002045786974202020D1
:1027860020202053746172742000202020202045D0
:102796006965727568722020202020002020202084
:1027A600436F756E74646F776E20202020002020A2
:1027B6005A61686E7075747A74696D65722020004E
:1027C6002020202020202020202020536574757092
:1027D6002000456965727568723A2020005A616862
:1027E6006E7075747A2E2E3A0020202020204162C9
:1027F6006272756368202020202000205061757366
:0E28060065202000436F6E74696E75650005D5
:00000001FF
