:100000000C94D8140C94ED140C94ED140C94ED1481
:100010000C94ED140C94ED140C94ED140C94ED145C
:100020000C94ED140C94ED140C94ED140C94ED144C
:100030000C94ED140C94ED140C94ED140C94ED143C
:100040000C94ED140C94ED140C94ED140C94ED142C
:100050000C94ED140C94ED140C94ED140C94ED141C
:100060000C94ED140C94ED14000000000000005FEF
:1000700000000007000700147F147F14242A7F2A41
:1000800012C4C81026463649552250020502000007
:10009000001C2241000041221C0014083E081408E4
:1000A000083E0808000050300010101010100060CA
:1000B00060000020100804023E5149453E00427F86
:1000C0004000426151494622414949361814127F85
:1000D0001027454545393C4A494930017109050316
:1000E0003649494936064949291E0036360000007E
:1000F0005636000008142241001414141414004150
:100100002214080201510906324959513E7E11114B
:10011000117E7F494949363E414141227F4141227A
:100120001C7F494949417F090909013E4149497AF2
:100130007F0808087F00417F41002040413F017F48
:10014000081422417F404040407F020C027F7F0420
:1001500008107F3E4141413E7F090909063E415159
:10016000215E7F09192946464949493101017F012C
:10017000013F4040403F1F2040201F3F4038403F4C
:100180006314081463070870080761514945430068
:100190007F414100552A552A550041417F00040204
:1001A0000102044040404040000102040020545439
:1001B00054787F48444438384444442038444448C0
:1001C0007F3854545418087E0901020C5252523E92
:1001D0007F0804047800447D40002040443D007FB7
:1001E0001028440000417F40007C041804787C08FB
:1001F00004047838444444387C1414140808141453
:10020000187C7C080404084854545420043F44409B
:10021000203C4040207C1C2040201C3C4030403C86
:1002200044281028440C5050503C4464544C440022
:100230000836410000007F00000041360800080831
:100240002A1C08081C2A080801305400000000007D
:10025000000000000000000000000000000000009E
:1002600000000000008080808080D4FCFE9C1C1E6A
:100270001C1C1C180E06060606060E18181C1C1C54
:100280001C1C1C1C040C0C0C0C08101000000000A2
:10029000000000000000000000000000000000005E
:1002A0000000000000000000000000000000C0C0CE
:1002B000800000000080C080C04141E7FF7D69E30D
:1002C000FA4061F1F163F69EC000000080808088F2
:1002D000B8B8ACECFCCEFCC8B89890808080000028
:1002E000000000000000000000000000000000000E
:1002F0000000000000000000008080808010B0300E
:10030000E0901F7F5F1B3C280818FFEB83061EF858
:10031000F103020001030081818100030FFEF8E177
:10032000C1C3E72D3DF1830F0D01030F0107050147
:100330008307FA3C1818302060C0808080000000DD
:100340000000000000000000000000000000071F87
:100350007FFFFCF5FFBFA0E0F8F8207CD0F83F7FDE
:100360007B59FEF7F1D0787EFEF83C3FFFB6B637FA
:100370007F77E3818181F3F3BF3F3A38393F381EFD
:10038000193D3EEFC6CF070C1810306040C080000A
:100390000181C3C6ECBCF8F8583030000103071FD8
:1003A0003EFEFEEC6CEFEFEFFFF78787FFFFFFFCF1
:1003B0008001E0A080C081871FFFFF7A00FFFE0060
:1003C0000040C18000C08103D7FFFFFBDFC0E0F029
:1003D000F0C0E0F0E0E0F0F8DFEF60E0F07070B067
:1003E00098DCED6F37370A0F0303000000000000B0
:1003F00000000000000003070C1D1B353935333F9A
:10040000333F2B2B2B2F7B5B5F5B5B5F5B5B5F5B10
:100410005B5B5F5B5B5F5B5B5F5B5B5F7B6B6F6BC8
:100420006B6F2B3F7B37373535353F3E3A3E1D1DD1
:100430000F0E070303010000000000000000000091
:10044000000000045050FFFFFFFFFFFFFFFFFFFF12
:10045000FFFFFFFFFFFFFFFFFFFFFFFFFFFFFFFFAC
:10046000FFFFFFFFFFFFFFFFFFFFFFFFFFFFFFFF9C
:10047000FFFFFFFFFFFFFFFFFFFFFFFFFFFFFFFF8C
:10048000FFFFFFFFFFFFFFFFFFFFFFFFFFFFFFFF7C
:10049000FFFFFFFFFFFFFFFFFFFFFFFFFFFFFFFF6C
:1004A000FFFFFFFFFFFFFFFFFFFFFFFFFFFFFFFF5C
:1004B000FFFFFFFFFFFFFFFFFFFFFFFFFFFFFFFF4C
:1004C000FFFFFFFFFFFFFFFFFFFFFFFFFFFFFFFF3C
:1004D000FFFFFFFFFFFFFFFFFFFFFFFFFFFFFFFF2C
:1004E000FFFFFFFFFFFFFFFFFFFFF00FFFFFFFF02A
:1004F00000FF00FF00000000000FFFF00FFF00FFF3
:1005000000FF00FFF000000000000000FFFFFFFF01
:10051000FFFFF00FFFFFFFF000FF00FF00000000F3
:10052000000FFFF00FFF00FF00FF00FFF0000000D2
:1005300000000000FFFFFFFF00FFFFFFFFFFF000D4
:1005400000000000FF0000000000000FFFFF00009F
:10055000FFFFFFFFF00FFFFFFFFFFF00FFFFFFFFA9
:1005600000FFFFFFFFFFF00000000000FF000000A1
:100570000000000FFFFF0000FFFFFFFFF00FFFFF75
:10058000FFFFFF00FFFFFFFF00FFFFFFFFFFF00087
:1005900000000000FF0000000000000FFFFF00004F
:1005A000FFFFFFFFF00FFFFFFFFFFF00FFFFFFFF59
:1005B000FFFFFFF00FFFF00FFFFF00FF00FFFFFF47
:1005C000F000000FF00000FFFF0000FFF00FF00050
:1005D000000FFF00FFFFFFFFFFFFFFF00FFFF00F17
:1005E000FFFF00FF00FFFFFFF000000FF00000FF23
:1005F000FF0000FFF00FF000000FFF00FFFFFFFF04
:1006000000FFF0000FF00FF0000000FFFF00FFFF01
:10061000F00000000000FF00FF0000FFF00FF000FE
:10062000000FFF00FFFFFFFF00FFF0000FF00FF0D3
:10063000000000FFFF00FFFFF00000000000FF00CF
:10064000FF0000FFF00FF000000FFF00FFFFFFFFB3
:10065000000000000000000000000000FF00FFF0AC
:100660000FFFFFFFFFFFFFFFFF00FFFFF00FF00096
:10067000000FFF00FFFFFFFF000000000000000070
:1006800000000000FF00FFF00FFFFFFFFFFFFFFF74
:10069000FF00FFFFF00FF000000FFF00FFFFFFFF64
:1006A000FFFFF000000FFFFFFF00FF0000FF000052
:1006B0000FF00FF00FFF000000FF00FFF00FFFFF33
:1006C000FFFFFF00FFFFFFFFFFFFF000000FFFFF36
:1006D000FF00FF0000FF00000FF00FF00FFF000011
:1006E00000FF00FFF00FFFFFFFFFFF00FFFFFFFF16
:1006F000FFFFF00FF00FF00FFF0000FFFFFF000003
:10070000000FFFFFFFFF000000FF00FFF0000000F0
:1007100000000000FFFFFFFFFFFFF00FF00FF00FE2
:10072000FF0000FFFFFF0000000FFFFFFFFF0000C2
:1007300000FF00FFF000000000000000FFFFFFFFCF
:10074000FFFFF000000FFFFFFF0000FF00FF000FA2
:10075000FFF000000FFFFF00FFFF00FFFFFFFFFFA4
:10076000FFFFFFFFFFFFFFFFFFFFF000000FFFFF96
:10077000FF0000FF00FF000FFFF000000FFFFF0071
:10078000FFFF00FFFFFFFFFFFFFFFFFFFFFFFFFF78
:10079000FFFFF000000FFFFFFF0000FF00FF000F52
:1007A000FFF000000FFFFF00FFFF00FFFFFFFFFF54
:1007B000FFFFFFFFFFFFFFFF0000000FF000000042
:1007C00000000000FFFFFFF0000FFFFFFFFFFFFF33
:1007D0000000FF00000FFFFFF00000FFFFFFFFFF22
:1007E0000000000FF000000000000000FFFFFFF01D
:1007F000000FFFFFFFFFFFFF0000FF00000FFFFFE4
:10080000F00000FFFFFFFFFF00000FF00FF00000FF
:1008100000FFFF00FF0000000FFFF00FFFFF00FFD1
:100820000000FFFFFFF000000FFFFF00FFFFFFFFD2
:1008300000000FF00FF0000000FFFF00FF000000BD
:100840000FFFF00FFFFF00FF0000FFFFFFF00000B1
:100850000FFFFF00FFFFFFFF0000000FFFFFFFFF84
:10086000FF00000000FFFFF0000FFFF00FFFFFFF91
:10087000FF000000000FFFFFFFF00000FFFFFFFF81
:100880000000000FFFFFFFFFFF00000000FFFFF070
:10089000000FFFF00FFFFFFFFF000000000FFFFF42
:1008A000FFF00000FFFFFFFFFF000FF00FFFFFFF53
:1008B000FFFF00FFFF0000000FF00FFFFFFFFF0032
:1008C00000FF00000FFFFFF0000000FFFFFFFFFF31
:1008D000FF000FF00FFFFFFFFFFF00FFFF00000012
:1008E0000FF00FFFFFFFFF0000FF00000FFFFFF002
:1008F000000000FFFFFFFFFF00FFF0000FFFFFFF02
:10090000FF00000000FF000000000FF000000000EA
:10091000FFFFFF00000FFFF0000000FFFFFFFFFFE1
:1009200000FFF0000FFFFFFFFF00000000FF0000CE
:1009300000000FF000000000FFFFFF00000FFFF0BD
:10094000000000FFFFFFFFFFFF000FF00FF00000AF
:100950000000FF00FF00000000000FF00000FFFF9C
:10096000FFFFFF000FF00FFFF0000000FFFFFFFF91
:10097000FF000FF00FF000000000FF00FF0000007C
:1009800000000FF00000FFFFFFFFFF000FF00FFF60
:10099000F0000000FFFFFFFFFF000FF00FF000006E
:1009A0000000FF00FF00000000000FF00000FFFF4C
:1009B000FFFFFF000FF00FFFF0000000FFFFFFFF41
:1009C000FF00000FFFF0000000FFFFFF0000FFF03E
:1009D0000FF0000000000000FF00FFFFF0000FFF1D
:1009E000F00000FFFFFFFFFFFF00000FFFF000001F
:1009F00000FFFFFF0000FFF00FF00000000000000C
:100A0000FF00FFFFF0000FFFF00000FFFFFFFFFF00
:100A100000FFF0000000000FFF0000000000FFFFDB
:100A2000F00FF0000000FFFFFF0000000FF00FFFCD
:100A3000FFFFFF00FFFFFFFF00FFF0000000000FBF
:100A4000FF0000000000FFFFF00FF0000000FFFFBC
:100A5000FF0000000FF00FFFFFFFFF00FFFFFFFF91
:100A6000000000000000000FFFFF00FF0000FFF08B
:100A70000FFFF0000FFFFF00FF000000000FF0006D
:100A80000FFFFFFFFFFFFFFF000000000000000F4F
:100A9000FFFF00FF0000FFF00FFFF0000FFFFF005F
:100AA000FF000000000FF0000FFFFFFFFFFFFFFF40
:100AB000FF00000FFFFFFFFFFF00000000FF00002E
:100AC0000FFFF0000FFFFF00000000FFFFFFF0002E
:100AD0000FFFFF00FFFFFFFFFF00000FFFFFFFFF03
:100AE000FF00000000FF00000FFFF0000FFFFF00FD
:100AF000000000FFFFFFF0000FFFFF00FFFFFFFF00
:100B0000FFFFF00FF0000FF00000FFFFFF000000FC
:100B10000FF00FF000000000FFFFFFFFF0000000EB
:100B2000000FFF00FFFFFFFFFFFFF00FF0000FF0CF
:100B30000000FFFFFF0000000FF00FF000000000BA
:100B4000FFFFFFFFF0000000000FFF00FFFFFFFFAF
:100B500000000FFFFFF00FFFFF00FF00FFFF000F7F
:100B6000F00000000FFF0000FF0000FFFFFFFFF09C
:100B70000FFFFF00FFFFFFFF00000FFFFFF00FFF61
:100B8000FF00FF00FFFF000FF00000000FFF00005C
:100B9000FF0000FFFFFFFFF00FFFFF00FFFFFFFF61
:100BA00000000FFFFFF00FFFFF00FF00FFFF000F2F
:100BB000F00000000FFF0000FF0000FFFFFFFFF04C
:100BC0000FFFFF00FFFFFFFFFFFFF00FF0000FFF21
:100BD000FFFF0000FF00000FF0000FFFFFFFFF000E
:100BE00000000000000000000FFFFF00FFFFFFFFFC
:100BF000FFFFF00FF0000FFFFFFF0000FF00000FEE
:100C0000F0000FFFFFFFFF000000000000000000E9
:100C10000FFFFF00FFFFFFFF00000FF000000FF0CD
:100C200000FFFFFFFF00FFFFFFF00FFFF0000000DD
:100C3000FF00FF000FFFFFFFFFFFFFFFFFFFFFFFB2
:100C400000000FF000000FF000FFFFFFFF00FFFFAC
:100C5000FFF00FFFF0000000FF00FF000FFFFFFF9D
:100C6000FFFFFFFFFFFFFFFF000000000FFFF0008E
:100C700000FF00FFFFFFFFF0000FFFFFFFFFFF007F
:100C80000000FFFFF00FFFFFFFFFFFFFFFFFFFFF71
:100C9000000000000FFFF00000FF00FFFFFFFFF06B
:100CA000000FFFFFFFFFFF000000FFFFF00FFFFF3F
:100CB000FFFFFFFFFFFFFFFF00FFF00FFFFFF00050
:100CC00000FF00FF0000000000000FFFF000FFFF2A
:100CD00000FF00000FF00FF00FFFFF00FFFFFFFF0E
:100CE00000FFF00FFFFFF00000FF00FF000000001A
:100CF00000000FFFF000FFFF00FF00000FF00FF0FB
:100D00000FFFFF00FFFFFFFF00000FF00FFFF00FCE
:100D1000FFFFFFFF0000FFF0000FFFF00FFF0000DC
:100D200000FFFF0000000FF0000FFF00FFFFFFFFBC
:100D300000000FF00FFFF00FFFFFFFFF0000FFF0BC
:100D4000000FFFF00FFF000000FFFF0000000FF09A
:100D5000000FFF00FFFFFFFFFFFFFFFFFFFFFFFF91
:100D6000FFFF0000FF00FFFFF0000FFFFFFFFF008D
:100D7000FFFF00FFFFFFFFFFFFFFFFFFFFFFFFFF82
:100D8000FFFFFFFFFFFFFFFFFFFF0000FF00FFFF70
:100D9000F0000FFFFFFFFF00FFFF00FFFFFFFFFF5F
:100DA000FFFFFFFFFFFFFFFFFFFFFFFFFFFFFFFF53
:100DB000FFFF0000FF00FFFFF0000FFFFFFFFF003D
:100DC000FFFF00FFFFFFFFFFFFFFFFFFFFFFFFFF32
:100DD000000000000000000FFF00FF00FF00FFF018
:100DE0000FF00FF00FFF00FF00FF00FFF00000000A
:100DF00000000000FFFFFFFF000000000000000FE8
:100E0000FF00FF00FF00FFF00FF00FF00FFF00FFEB
:100E100000FF00FFF000000000000000FFFFFFFFE8
:100E200000FFFFFFFFFFF00FFFFFFFFFFF000000CD
:100E300000000FFFFFFF0000FF00FFFFF00FFFFFAC
:100E4000FFFFFF00FFFFFFFF00FFFFFFFFFFF00FAF
:100E5000FFFFFFFFFF00000000000FFFFFFF00008B
:100E6000FF00FFFFF00FFFFFFFFFFF00FFFFFFFF8F
:100E700000FFF000000FF00FFF00FFFF00FF000F6A
:100E8000FFF000000FFF00FF00FFFFFFF00FF0007A
:100E9000000FFF00FFFFFFFF00FFF000000FF00F4B
:100EA000FF00FFFF00FF000FFFF000000FFF00FF3B
:100EB00000FFFFFFF00FF000000FFF00FFFFFFFF3C
:100EC00000FFF000000FF00FFF000000FFFFFFFF2A
:100ED000F00FF0000000FFFF00FF00FFF00FF00038
:100EE000000FFF00FFFFFFFF00FFF000000FF00FFB
:100EF000FF000000FFFFFFFFF00FF0000000FFFF0A
:100F000000FF00FFF00FF000000FFF00FFFFFFFFEA
:100F100000FFF000000FF00FFF000000FFFFFFF0E8
:100F20000FF0000000000000FFFFFFFFF00FF000D7
:100F3000000FFF00FFFFFFFF00FFF000000FF00FAA
:100F4000FF000000FFFFFFF00FF0000000000000B6
:100F5000FFFFFFFFF00FF000000FFF00FFFFFFFF9C
:100F600000FFFFFFFFFFF00FFF000000FF00FFFF8B
:100F7000FFFFFFFFFFFF00FFFFFF00FFF00FFFFF7E
:100F8000FFFFFF00FFFFFFFF00FFFFFFFFFFF00F6E
:100F9000FF000000FF00FFFFFFFFFFFFFFFF00FF5C
:100FA000FFFF00FFF00FFFFFFFFFFF00FFFFFFFF4E
:100FB00000FFFFFFFFFFF00FFF000000FF00FFFF3B
:100FC000FFFFFFFFFFFF00FFFFFF00FFF00FFFFF2E
:100FD000FFFFFF00FFFFFFFF000000000000000F09
:100FE000FFFF00FFFFFF00000FF00FF00000000008
:100FF000FF0000FFF000000000000000FFFFFFFF07
:10100000000000000000000FFFFF00FFFFFF0000D6
:101010000FF00FF000000000FF0000FFF0000000E4
:1010200000000000FFFFFFFFFFFFFFFFFFFFFFFFCC
:10103000FFFFFFFFFFFFFFFFFFFFFFFFFFFFFFFFC0
:10104000FFFFFFFFFFFFFFFFFFFFFFFFFFFFFFFFB0
:10105000FFFFFFFFFFFFFFFFFFFFFFFFFFFFFFFFA0
:10106000FFFFFFFFFFFFFFFFFFFFFFFFFFFFFFFF90
:10107000FFFFFFFFFFFFFFFFFFFFFFFFFFFFFFFF80
:10108000FFFFFFFFFFFFFFFFFFFFFFFFFFFFFFFF70
:10109000FFFFFFFFFFFFFFFFFFFFFFFFFFFFFFFF60
:1010A000FFFFFFFFFFFFFFFFFFFFFFFFFFFFFFFF50
:1010B000FFFFFFFFFFFFFFFFFFFFFFFFFFFFFFFF40
:1010C000FFFFFFFFFFFF0450600000000000000072
:1010D0000000000000000000000000000000000010
:1010E0000000000000000000000000000000000000
:1010F00000000000000000000000000000000000F0
:1011000000000000000000000000000000000000DF
:1011100000000000000000000000000000000000CF
:1011200000000000000000000000000000000000BF
:1011300000000000000000000000000000000000AF
:10114000000000000000000000000000000000009F
:10115000000000000000000000000000000000008F
:10116000000000000000000000000000000000007F
:10117000000000000000000000000000000000006F
:10118000000000000000000000000000000000005F
:10119000000111122333445566777778888999992D
:1011A000888888766655555444443332221110009D
:1011B0000000000000000000000000000001356792
:1011C000999AAAABBBBBBBBBBBBBAAAAAAAAAAAA39
:1011D000AAAAAAAAAAAAAAAAAAAAAAAAAAA99988A3
:1011E00077654432000000000000000003ABBBBA8A
:1011F000AAA999999999999999999999999999993E
:1012000099998888888888888888888999999999F7
:101210009AAAAAAA96100000000000004BA999996A
:101220009889999999999999999999998888988873
:10123000898888888888888888888888888888882D
:10124000888888889A91000000000003B9999888DE
:1012500088888898888898888889998888888888DC
:101260008888888888888888877878888888878820
:1012700088888888889800000000000898888888F6
:101280008888889988888888888888888887766701
:101290007788888888887887777777787777777777
:1012A00078788877788950000000001988888777D7
:1012B000777788534788888888888886434334347A
:1012C0003243576667778888878777777777777726
:1012D00077777777777870000000002978777777CD
:1012E00088886114447866788853211256788999E1
:1012F00099A9AA99865444445677777666666677A4
:10130000777777766677810000000038777777788F
:10131000632200364630034432156626899AAABBFA
:10132000AAAAAAAABBAA986432222222233443562C
:101330003335676666678200000000487777678507
:10134000002320232670037840179A98AAAAAAAAF5
:10135000AAAAAAAAAABAABBAAA98756677788889FF
:1013600086411466666783000000004767777672DF
:101370000042510026850158A306AAAAAAAAABAA30
:10138000AAAAAAABABBBAAAAAAAAAAA9999999AADE
:10139000AA99526665668300000000476667667317
:1013A0000063470024892037A8049AAAAAAAAABBE6
:1013B000BBBAAAABBBBAAAAAAAAAAAAAAAAAAAAA4A
:1013C000AAAAA756556673000000004666666666C0
:1013D00010135950116A80168A416999AAAAAABBAA
:1013E000BBAAAABBBBAAAAAAAAAAAAAAAAAAAAAA2A
:1013F000AAAAAA755555730000000056666666666F
:10140000500368920158A70489A41358AAAAABAA4A
:10141000BBAAAAABBBBBABAAAAAAAAAAAAAAAAAAF7
:10142000AAAAAAA65555640000000046666555564E
:101430007401469810379B50589A9889AAAAABBA5B
:10144000BBBBAAABAABBAAAAAAAAAAAAAAAAAAAAC8
:10145000AAAAAAA94554630000000046555555653F
:101460004400258A81168AB51368AAAAAAAAAAAB3B
:10147000BBBBBBABBAAAAAAAAAAAAAAAAAAAAAAA88
:10148000AAAAAAAB64545300000000455555641243
:1014900032000268B702689B8568999AAAAAAAAA2C
:1014A000BBAABBABBAAAAAAAAAAAAAAAAAAAAAAA69
:1014B000AAAAAAAB84445300000000455555302524
:1014C000774000268A6113688889999AAAAAAAAAED
:1014D000AAAAAAAAAABAAAAAAAAAAAAAAAAAAAAA5C
:1014E000AAAAAAAB84445300000000454453014714
:1014F0008684001368AA8567888999AAAAAAAAAAD5
:10150000AAAAAAAAAABAAAAAAAAAAAAAAAAAAAAA2B
:10151000AAAAAAAB934443000000004444500157D8
:10152000516950002467887778899999999999A980
:10153000AAAAAAAAAABAAAAAAAAAAAAAAAAAAAAAFB
:10154000AAAAAAAB933442000000004444300266C9
:101550008569A7421024577778888889999999993D
:10156000AAAAAAAAABBBAAAAAAAAAAAAAAAAAAAAC9
:10157000AAAAAAAB833332000000003434200276DA
:1015800074788897752246777778888888899999BA
:10159000AAAAAAAAABBBAAAAAAAAAAAAAAAAAAAA99
:1015A000AAAAAAAB723332000000003334200454DC
:1015B00023764764565445566666777788888999B6
:1015C0009AAAAAAAAABABBAAAAAAAAAAAAAAAAAA6A
:1015D000AAAAAAAB42323200000000333331021013
:1015E00001221310001122345555566778888999C5
:1015F0009AAAAAAAAAAAABBAAAAAAAAAAAAAAAAA4A
:10160000AAAAAAB9222232000000002222332222F2
:10161000332222232222110122233455677888891C
:1016200099AAAAAAAAAAAAAAAAAAAAAAAAAAAAAA2B
:10163000AAAAAAB6122222000000002222222222F6
:1016400022333333333333222110123466777888D0
:101650008999AAAAAAAAAAAAAAAAAAAAAAAAAAAA1C
:10166000AAAAAAA2222222000000002222222222CA
:101670002232323322222222333210013556678839
:101680008899999AAAAAAAAAAAAAAAAAAAAAAAAA0E
:10169000AAAAAB6122222200000000334344333364
:1016A00033333344543444444445587102455677E7
:1016B00088899999AAAAAAAAAAAAAAAAAAAAAAAAEF
:1016C000AAAAAA33333332000000005455443333FE
:1016D0003333343332344554326ADDEC50134556DB
:1016E0007788889999AAAAAAAAAAAAAAAAAAAAAAF3
:1016F000AAAAB63344444300000000654443333390
:10170000334442222223443249DDDDCDEB401344F1
:1017100056777788999AAAAAAAAAAAAAAAAAAAAA26
:10172000AAAAA621333343000000004555444333A1
:101730003432122222222359CDCCCCCCCDDA401324
:10174000455656778899AAAAAAAAAAAAAAAAAAAA6C
:10175000AAAA9DB6222353000000006665543357A1
:10176000ACB8666778998BDDCCCCCCCCCCCDEB40DB
:1017700012344566778899AAAAAAAAAAAAAAABAAE5
:10178000AAAAACCDB85333000000006553259CCD08
:10179000CBCDDDDDDDDDCDCCCCCCCCCBBCCCCDEA36
:1017A000301233455677899AAAAAAAAAAAAAABAA3E
:1017B000AAB9BBBBCDDC94000000004347BDDCCB25
:1017C000BBCBBBBBBBBBBCCBBCBBBBBBBBBCCCCD23
:1017D000D9201122356778999AAAAAAAAAAABAAAE0
:1017E000AAA9BBBBBBBCDB000000008ACDCCCBCC24
:1017F000BABBABBBBBBBBBBBBBBBBBBBBBBBBCBB49
:10180000BDD600012345678899AAAAAAAAAAABAAAD
:10181000ABAABBBBBBBBDA00000000FDCCBBBBBBB3
:10182000BBABBBAAAABABBBBBBBBBBAAABABBBBB6C
:10183000BBCD800001245678899AAAAAAAAAAAAA8E
:10184000AB9BBBBBBBBBCA00000000DCCBBBBBBBC4
:10185000BBAAABAAAAAABBBBBAAAAAAAAAABAAAAA3
:10186000AABBD900000235678899AAAAAAAAAAAA7F
:10187000BB9BABBBBBBBCA00000000ECCBBBBBBB84
:10188000AAAAAAAAAABBAABBAAAAAAAA9AAAA9AAA7
:10189000AAABBD800000135688999AAAAAAAABBB2E
:1018A000BA9BAABBBBBBCA00000000DBBBBBBBAA88
:1018B000AAAAAAAAAAABABAAAA9A99A998999999ED
:1018C0009AAAAAC60000124678999AAAAAAAABBBFD
:1018D000BAABAAABBBBBCA00000000DCBBBBBAA959
:1018E000AA9A9A999AAAAA99999999999999999932
:1018F0009999AAAB1000013578999AAAAAAAABBB0C
:10190000BA9AAAAAAAABCA00000000DBCCBBBBAB48
:10191000A9AA999999999999998999988989989948
:101920009999AAAB5000012468999AAAAAAAABBBBC
:10193000B99AAAAAAAABCA00000000DABBBBAAAA3D
:10194000AA9999999999998988898888888888888D
:101950009999999B70000013688999AAAAAABBBBA0
:10196000B99AAAAAAAAAB900000000DBBBAAABAB2D
:10197000BAA9999989999888888888888888888850
:101980008888889A8000001467899AAAAAAAABBBA3
:10199000B99AAAAAAAAAB800000000DBBBA9999A22
:1019A0009A99999989988888888888888888888861
:1019B0008888889A800000246899AAAAAAAABBBB32
:1019C000B999AAAAAAAAB800000000DBBA99999905
:1019D0009988888888888888888888887888888886
:1019E00088888889700000146899AAAAAAAAABBA44
:1019F000B99999AA99AAB800000000DAAA99999908
:101A00008988888888888888888888887788888866
:101A10008888888960000024689AAAAAABAABBBA01
:101A2000B999999999AAB800000000CAA99889980B
:101A300088889999998998888888888888888888E2
:101A40008898888950000024689AAAAAAAABABBAE1
:101A5000B8999999999AB800000000A9888888884F
:101A600088889999999998888888888888888888A2
:101A70009999989A40000124689AAAAAAAAAAABB8E
:101A8000B8999999999AB700000000A88888888821
:101A90007888889999999888888888888888898892
:101AA0009999998920000124689AAAAAAAAAAABB8E
:101AB000B899999AA9A9B600000000A888787887F3
:101AC0008888889999998888888888888888999941
:101AD0009999998810000125679AAAAAAAAAAABB6F
:101AE000B89999999AAAB5000000009888777787E5
:101AF0007888888888888888888888888999999942
:101B00009999988700000135689AAAAAAAAAABBA3F
:101B1000A8999999AAAAB5000000009887777777C5
:101B20007788888888888888888888888899989914
:101B30009A9A999400000135789AAAAAAAAAABAAFF
:101B4000A8999999AAAAB400000000988777777796
:101B50007778788888888888888888888899989904
:101B600099999A9200000135789AAAAAAAAABBAAC2
:101B7000A89A99A9AAAAB400000000988878777753
:101B800077777788888888888888888889999999D4
:101B90009999A98000000246789AAAAABABBBBBA52
:101BA000A899999AAAAAB300000000988887777725
:101BB0007777778888888888888888889999999994
:101BC000999999600000134688AAAAAAABBBBBBB2F
:101BD000A899999AAAAAB3000000009888887777F4
:101BE0007777778888888888898889898999988883
:101BF00088999A400000135789AAAAABABBBBBBB1C
:101C0000A899999AAAAAB2000000009888888777B4
:101C10007777888888888888888889999889998832
:101C2000999AA9100001135789AAAABABABBBBBBDB
:101C3000A899999AAAAAB200000000A88888777784
:101C400077778888888999889889999899999989BE
:101C500099998600000124679AAABBABBBBBBBBBAA
:101C6000A8999AAAAAAAB100000000998888777852
:101C7000887788888889988899899999999998996D
:101C800099978400000124789AAABBBBBBBBBBBB5D
:101C9000A89999AA9AAAB100000000988888777735
:101CA000788888888889889888989889A99999993E
:101CB00097778100001135789AABBBBBBBBBBBBB30
:101CC000A99999A9AAAAB100000000888887777805
:101CD00088888888888989988889888899A999991D
:101CE00086676000001135789AAAABBBBBBBBBBB53
:101CF000A8999999AAABB100000000787788777706
:101D000078888888889898999899998879999998DD
:101D10007678300000124678AAAABBABBBBBBBBB2F
:101D2000A99999A9AAABB00000000067666555554E
:101D300056788889988999999999998888989986DF
:101D40007788100000124689AAABBBBBBBBBBBABFC
:101D5000A9999999AAABA0000000003444444445D5
:101D60005566778889999999999999988877777715
:101D700077A7000001134678AAAABBBBBBBBBABBBE
:101D8000A899999AAAAB90000000003444444445B5
:101D90005566566679999999999999988887776738
:101DA00088A3000001135689AAABBBBBBBBBBBBB5E
:101DB0009899999AAABC8000000000344444444495
:101DC000555566566888999999999999887666665D
:101DD0006770000001245679ABBBBBBBBBBBBBBB70
:101DE0009789999AAAAC70000000002444444444A6
:101DF0005555655666789999999999999865566651
:101E00006830000001345689ABBBBBBBBBBBBBBB5E
:101E1000A8999AAAAABC5000000000044444444473
:101E200045555556667788899999A99A9765556752
:101E3000771000000235668AABBBBBBBBBBBBBBB2C
:101E4000A9999999ABBC4000000000035444544444
:101E5000455555566677788889999AAA9655557743
:101E60009600000012356789BBBBBBBBBBBBBBBBCD
:101E7000A889AAAA9ABC2000000000015545545523
:101E80004455556666776777899A9AA98655556944
:101E9000B20000001235678AABBBBBBBBBBBBBBB90
:101EA000A7889AAAABD60000000000001566655509
:101EB0005555556666667777889999998755657BF4
:101EC000800000011345799AABBBBBBBBBBBBBBB5E
:101ED000AAABAABBCA500000000000000023444483
:101EE000555666667777888889AAABBBA6668ABC92
:101EF0002000000123578ABBCCCCCCCCCCCCCCCCA2
:101F0000BBBBA976400000000000000000000000FC
:101F100000000000000000000000000000000000C1
:101F200000000000000000000000000000000000B1
:101F300000000000000000000000000000000000A1
:101F40000000000000000000000000000000000091
:101F50000000000000000000000000000000000081
:101F60000000000000000000000000000000000071
:101F70000000000000000000000000000000000061
:101F80000000000000000000000000000000000051
:101F90000000000000000000000000000000000041
:101FA0000000000000000000000000000000000031
:101FB0000000000000000000000000000000000021
:101FC000000000000000000000013054000000008C
:101FD00000000000000000000000008080C0E0C0A1
:101FE0008000000000000000000000000000000071
:101FF00000000000000000000000000000000000E1
:1020000000000000000000000000000000000000D0
:1020100080C0E0C0C08000000000000000000000A0
:102020000000000000000000000080E0F8BEFFAFEC
:102030007B57FDFFFFFFFFFEFCF8F0E0C0800000D3
:102040000000000000000000000000000000000090
:1020500000000000000000000000000080C0E0F070
:10206000F8FCFEFFFFFFFFB5DF77DF7EFCF0C0006E
:1020700000000000000000000000000000001F7FC2
:10208000BBEE5BA45B25FFFFFFFFFF8B07DFFFFFBE
:10209000FD0103061C3870E0800000000000000015
:1020A0000000000000000000000080C070380C0636
:1020B000F7FFFFDF0B47FFFFFFFFFF17E817EDB745
:1020C000DDFF3F00000000000000000000000000F5
:1020D0000000000001060F1A2D3269679FFF7F7F05
:1020E000FEFFFF3F0300808080402020131F1C0064
:1020F0000000000000000000000000182E274140F2
:1021000080808000011F7F7FFFFFFFBF5F4F533440
:10211000351A0F0603000000000000000000000058
:1021200000000000000000000000000000000000AF
:102130000000010101010101010100000000000097
:10214000000000000000000000000000000000008F
:10215000000000000000000101010101000000007A
:10216000000000000000000000000000000000006F
:10217000000000000000000000000000000000005F
:10218000000000000000000000000000000000004F
:10219000000000000000000000000000000000003F
:1021A000000000000000000000000000000000002F
:1021B000000000000000000000000000000000001F
:1021C000000000000130540000000000000000008A
:1021D00000000000000000000000000000000000FF
:1021E00000000000000000000000000000000000EF
:1021F00000000000000000000000000000000000DF
:1022000000000000000000000000000000000000CE
:1022100000000000000000000000000000000000BE
:10222000000000000000C0F8FCBFEF5EB8F0E0C0A6
:10223000800000000000000000000000000000001E
:10224000000000000000000000000000000000008E
:10225000000000000000000000000000000000007E
:10226000008080C0E070B8F8F8E0000000000000D6
:10227000000000000000000000001F7FEAB7AAABCA
:10228000947FFFFFFFFFEE0C1CF8F0E040C08000E1
:10229000000000000000000000000000000000003E
:1022A0000000000000000000008080C0C0E0F0904E
:1022B00018FCFCFEFFFF5FAA5555EFBADF3F000098
:1022C000000000000000000000000000000000000E
:1022D00003060D1A2A28275F9FFF7F7FFFFF7F07D6
:1022E0000000818346464C281808000000000000CA
:1022F0000000000000000018384C46464381800072
:102300001F7FFF7EFFFFBFBF4F5334151A0F05031A
:1023100000000000000000000000000000000000BD
:1023200000000000000000000000000000000101AB
:102330000101010101010000000000000000000097
:10234000000000000000000000000000000000008D
:102350000000000101010101010000000000000077
:10236000000000000000000000000000000000006D
:10237000000000000000000000000000000000005D
:10238000000000000000000000000000000000004D
:10239000000000000000000000000000000000003D
:1023A000000000000000000000000000000000002D
:1023B000000000000000000000000000000000011C
:1023C0003054000000000000000000000000000089
:1023D00000000000000000000000000000000000FD
:1023E00000000000000000000000000000000000ED
:1023F00000000000000000000000000000000000DD
:1024000000000000000000000000000000000000CC
:1024100000000000000000000000000000000000BC
:1024200000C080000000000000000000000000006C
:10243000000000000000000000000000000000009C
:10244000000000000000000000000000000000008C
:10245000000000000000000000000000000000007C
:10246000000000000000000000000000000000006C
:1024700000000000001FFFAEFC98706060C0C080CC
:1024800080000000000000000000000000000000CC
:10249000000000000000000000000000000000003C
:1024A00000000000000000000000000000000080AC
:1024B000C0C0E060B058FCDE3F000000000000003B
:1024C000000000000000000000000003060A0D1AD2
:1024D00021576F9FFF7F7FFEFE7E0C040C8888488B
:1024E0004838181010000000000000000000000034
:1024F000000010303050705888880C0C7C7CFE7EB8
:10250000FFBFBF4F734836190F05030000000000DE
:1025100000000000000000000000000000000000BB
:1025200000000000000000000001010101010101A4
:10253000010000000000000000000000000000009A
:102540000000000000000000000000000000010189
:102550000101010100000000000000000000000077
:10256000000000000000000000000000000000006B
:10257000000000000000000000000000000000005B
:10258000000000000000000000000000000000004B
:10259000000000000000000000000000000000003B
:1025A000000000000000000000000000000000002B
:1025B0000000000000000000000001305400000096
:1025C000000000000000000000000000000000000B
:1025D00000000000000000000000000000000000FB
:1025E00000000000000000000000000000000000EB
:1025F00000000000000000000000000000000000DB
:1026000000000000000000000000000000000000CA
:1026100000000000000000000000000000000000BA
:1026200000000000000000000000000000000000AA
:10263000000000000000000000000000000000009A
:10264000000000000000000000000000000000008A
:10265000000000000000000000000000000000007A
:10266000000000000000000000000000000000006A
:1026700040E080800000000000000000000000003A
:10268000000000000000000000000000000000004A
:10269000000000000000000000000000000000003A
:1026A000000000000000000000000000000000002A
:1026B0000080C0600000000000000000000000007A
:1026C00000000000000003050D1B1B36465E9CFC4D
:1026D0007878F8F0B03020A0A060606020000000A2
:1026E000000000000000000000000000000000608A
:1026F00060A0A0A0B03010707070F0F8B8D8AC4CEA
:102700002C361A0B07030000000000000000000038
:1027100000000000000000000000000000000000B9
:1027200000000000010101010101010000000000A2
:102730000000000000000000000000000000000099
:102740000000000000000000000101010101000084
:102750000000000000000000000000000000000079
:102760000000000000000000000000000000000069
:102770000000000000000000000000000000000059
:102780000000000000000000000000000000000049
:102790000000000000000000000000000000000039
:1027A0000000000000000000000000000000000029
:1027B0000000000000013054000000000000000094
:1027C0000000000000000000000000000000000009
:1027D00000000000000000000000000000000000F9
:1027E00000000000000000000000000000000000E9
:1027F00000000000000000000000000000000000D9
:1028000000000000000000000000000000000000C8
:1028100000000000000000000000000000000000B8
:1028200000000000000000000000000000000000A8
:102830000000000000000000000000000000000098
:102840000000000000000000000000000000000088
:102850000000000000000000000000000000000078
:1028600000000000000000000000000080000000E8
:102870000000000000000000000000000000000058
:102880000000000000000000000000000000000048
:102890000000000000000000000000000000000038
:1028A0000000000000000000000000000000C0C0A8
:1028B0000000000000000000000000000000000018
:1028C0000103061C18306060C0808080800000001A
:1028D00000000000808080C0400000000000000078
:1028E0000000000000000000000040C0C0808080A8
:1028F000808000000000008080C0C0406020301850
:102900000C070300000000000000000000000000B1
:1029100000000000000000000000000000000001B6
:10292000010101010101010101010000000000009D
:102930000000000000000000000000000000000097
:10294000000000010101010101010101000000007E
:102950000000000000000000000000000000000077
:102960000000000000000000000000000000000067
:102970000000000000000000000000000000000057
:102980000000000000000000000000000000000047
:102990000000000000000000000000000000000037
:1029A0000000000000000000000000000000000027
:1029B00011241FBECFEFD4E0DEBFCDBF12E0A0E0F8
:1029C000B1E0ECE0F4E302C005900D92A630B1074F
:1029D000D9F70E94B8190C94041A0C94000020E056
:1029E00030E087FF02C0599A01C059985C985C9A00
:1029F0002F5F3F4F2830310511F0880FF2CF5998E3
:102A00000895299841980E94EF14419A0895429898
:102A1000429A85E10E94011587E00E94011589E331
:102A20000E94011585E70E94011580E00E940115B2
:102A30008FE40E94011586E80E94011581E80E943A
:102A400001158DE20E9401158EEB0E94011580E0B8
:102A50000E9401158CEB0E9401158FE00E94011568
:102A600080EA0E94011581E40E94011586EA0E9415
:102A7000011588EA0E9401158FE40E94011581EB7F
:102A80000E94011582E20E94011582EB0E9401154D
:102A900086E40E94011580EB0E94011588E00E94E7
:102AA000011584EB0E94011580E00E94011583EB63
:102AB0000E94011580EA0E9401158FEB0E9401150A
:102AC0008DE00E94011588EB0E94011581E00E94B3
:102AD000011581E10E94011582E20E94011582E345
:102AE0000E94011583E40E94011584E50E940115EE
:102AF00085E60E94011586E70E9401158EEA0E9474
:102B000001158DEA0E94011582E00E94011580E006
:102B100090E020ED37E0F9013197F1F701968C3420
:102B20009105C9F784EA0E9401158FEA0E940115F8
:102B300083EE0E94011508952998419A0E94EF148E
:102B4000299A0895AF92BF92CF92DF92EF92FF92AF
:102B50000F931F93982F062FF42E8052803608F083
:102B600090E2E5E09E9FF0011124E05AF040CF0191
:102B70000196E859FF4FA4909C012F5F3F4F885961
:102B80009F4FFC01B490C901019628593F4FF901AC
:102B9000C490FC01E859FF4FD49087599F4FFC0126
:102BA000E49085E10E94011513E0019F102D11248E
:102BB000812F895F0E940115812F875F0E94011577
:102BC00085E70E9401158F2D90E023E0880F991F63
:102BD0002A95E1F7182F0E940115812F895F0E9425
:102BE000011511E000E0812F8A2111F490E001C06D
:102BF00090EF812F8B2109F09F60892F0E949C15F7
:102C0000812F8C2111F490E001C090EF812F8D2154
:102C100009F09F60892F0E949C15812F8E2109F059
:102C200080EF0E949C150F5F083011F0110FDBCF71
:102C30001F910F91FF90EF90DF90CF90BF90AF90DA
:102C400008954F925F926F927F928F929F92AF9270
:102C5000BF92CF92DF92EF92FF920F931F93CF9389
:102C6000DF936C01942EFC0184910894C11CD11C4B
:102C7000F60124910894C11CD11CF60194914EEFE9
:102C80005FEFC40ED51E813009F051C0E3E0EE2E97
:102C9000F12C77E0472E460E3DC0FE016490219650
:102CA000FE017490219785E10E9401158B2D0E94F1
:102CB00001158B2D0E94011585E70E940115882DB5
:102CC0000E940115852D0E94011511E000E0812F61
:102CD000862111F490E001C090EF812F872109F047
:102CE0009F60892F0E949C150F5F083011F0110F13
:102CF000EECFA3942296B394FAE2AF1671F624E5D0
:102D000030E0E20EF31E3BEFE31631E0F30609F488
:102D100058C09394892C880C880C880C67E0562E38
:102D2000580CE601CE0DDF1DB42CAA24B6CF622EBE
:102D30007724892F90E0869DE001879DD00D969D98
:102D4000D00D1124D695C79522964C019694879460
:102D500036E0A32EA80CBB242FC085E10E940115EC
:102D600087E00E9401158A2D0E94011585E70E94C7
:102D700001158B2D0E9401158B2D0E9401157601E6
:102D8000EC0EFD1E8E010FC001501040F701849122
:102D9000982F92959F708295807F890F0E949C1535
:102DA0000894E108F1089E01201B822F90E088150D
:102DB000990550F3B394E8018B2D90E086159705A3
:102DC00060F2DF91CF911F910F91FF90EF90DF9014
:102DD000CF90BF90AF909F908F907F906F905F90BB
:102DE0004F900895CF93DF9385E10E94011587E00E
:102DF0000E94011589E30E94011585E70E940115D3
:102E000080E00E9401158FE40E940115C0E0D0E02F
:102E100080E00E949C1521968FE0C03FD807C1F743
:102E2000DF91CF9108950F931F93CF93DF93062FD8
:102E3000EA01682F07C0162F1F5F402F0E94A215BE
:102E40002196612F8881882311F06131A0F3DF91F1
:102E5000CF911F910F9108951F93CF93DF930E94FD
:102E6000F21685E10E94011587E00E94011589E3B1
:102E70000E94011585E70E94011580E00E9401155E
:102E80008FE40E940115C0E0D0E080EF0E949C1505
:102E900021962FE0C03FD207C1F780E090E020EDFF
:102EA00037E0F9013197F1F7019647E0813D94074A
:102EB000C1F787EA0E94011580E090E020ED37E03D
:102EC000F9013197F1F7019643E0893E9407C1F784
:102ED00084EA0E94011580E090E020ED37E0F901DE
:102EE0003197F1F7019643E0893E9407C1F785E1F8
:102EF0000E94011587E00E94011589E30E940115D7
:102F000085E70E94011580E00E9401158FE40E9470
:102F10000115C0E0D0E08FEF0E949C1521968FE054
:102F2000C03FD807C1F780E090E020ED37E0F9011D
:102F30003197F1F701964BE0893B9407C1F780E0A8
:102F400060E040E051E00E94131780E061E042E160
:102F500051E00E94131780E062E044E251E00E94D9
:102F6000131780E063E046E351E00E94131780E00E
:102F700064E044E251E00E94131780E065E048E419
:102F800051E00E94131780E066E044E251E00E94A5
:102F9000131780E067E04AE551E00E94131780E0D4
:102FA00068E044E251E00E94131780E069E040E0ED
:102FB00051E00E94131780E090E020ED37E0F90126
:102FC0003197F1F7019643E189389407C1F70E94E0
:102FD000F21688E492E065E042E00E94211685E165
:102FE0000E94011587E00E94011587E00E940115EB
:102FF00085E70E94011580E00E9401158FE40E9480
:10300000011510E080EF0E949C151F5F1035D1F76D
:1030100085E10E94011589E30E94011589E30E9460
:10302000011585E70E94011580E00E9401158FE4DB
:103030000E94011510E08FE00E949C151F5F103563
:10304000D1F785E10E94011587E00E94011589E30F
:103050000E94011585E70E94011580E00E9401157C
:1030600080E00E94011510E08FEF0E949C151F5F09
:103070001333D1F785E10E94011587E00E94011505
:1030800089E30E94011585E70E9401158FE40E94E3
:1030900001158FE40E94011510E08FEF0E949C152E
:1030A0001F5F1333D1F780E090E020ED37E0F901A6
:1030B0003197F1F701964BE0893B9407C1F70E94E5
:1030C000F21683E494E063E040E00E94211680E081
:1030D00090E020ED37E0F9013197F1F7019643E1F7
:1030E00089389407C1F70E94F21686EC90E163E0FC
:1030F00040E00E94211680E090E020ED37E0F901E9
:103100003197F1F7019643E189389407C1F70E949E
:10311000F21610E0C0EDD7E089EC9FE163E040E0FB
:103120000E94211680E090E0FE013197F1F70196B0
:1031300085369105C9F784EC91E263E040E00E9496
:10314000211680E090E0FE013197F1F70196853677
:103150009105C9F78FEB93E263E040E00E942116EE
:1031600080E090E0FE013197F1F7019685369105F8
:10317000C9F78AEB95E263E040E00E94211680E007
:1031800090E0FE013197F1F7019685369105C9F778
:1031900085EB97E263E040E00E94211680E090E03A
:1031A000FE013197F1F7019685369105C9F78AEB53
:1031B00095E263E040E00E94211680E090E0FE018D
:1031C0003197F1F7019685369105C9F78FEB93E2B8
:1031D00063E040E00E94211680E090E0FE0131971C
:1031E000F1F7019685369105C9F784EC91E263E029
:1031F00040E00E94211680E090E0FE013197F1F757
:10320000019685369105C9F789EC9FE163E040E0BE
:103210000E94211680E090E0FE013197F1F70196BF
:1032200023E0893E9207C1F71F5F153009F074CF84
:103230000E94F21680E065E04CE651E00E94131710
:1032400080E090E020ED37E0F9013197F1F7019649
:1032500043E0893E9407C1F780E065E04EE751E026
:103260000E94131780E090E020ED37E0F9013197DC
:10327000F1F7019643E0893E9407C1F780E065E0ED
:1032800040E951E00E94131780E090E020ED37E024
:10329000F9013197F1F7019643E0893E9407C1F7B0
:1032A00080E065E042EA51E00E94131780E090E080
:1032B00020ED37E0F9013197F1F7019643E0893EBF
:1032C0009407C1F780E065E044EB51E00E941317DA
:1032D00080E090E020ED37E0F9013197F1F70196B9
:1032E00043E0893E9407C1F780E065E046EC51E099
:1032F0000E94131780E090E020ED37E0F90131974C
:10330000F1F7019647E0813D9407C1F780E065E061
:1033100048ED51E00E94131710E0C0EDD7E080E0C7
:1033200060E04AEE51E00E94131780E090E0FE0159
:103330003197F1F7019622E089359207C1F780E0D5
:1033400060E04EEE51E00E94131780E090E0FE0135
:103350003197F1F7019642E089359407C1F71F5F75
:103360001530E9F60E94F216DF91CF911F91089572
:10337000CF93DF9382E084B915B886E087B980E304
:1033800088B982E38AB988E08BB980E090E020EDCB
:1033900037E0F9013197F1F7019685369105C9F7C4
:1033A0000E9407155D9A80E090E020ED37E0F9017A
:1033B0003197F1F7019685369105C9F70E94F2160B
:1033C000C0EDD7E080E065E042EF51E00E941317C6
:1033D00080E090E0FE013197F1F7019627E0813D12
:1033E0009207C1F70E942C17EDCF20E030E040EDAE
:1033F00057E005C0FA013197F1F72F5F3F4F821771
:0C3400009307C4F708950895F894FFCFD7
:10340C002A2A2A2A2A2A2A2A2A2A2A2A2A2A2A2A10
:10341C002A002A2031303278383020506978656C97
:10342C0020202A002A20202020202020202020209C
:10343C00202020202A002A20202D205353443133D1
:10344C003235202D20202A002A2031362047726167
:10345C007573747566656E202A002A2030313233FC
:10346C00343536373839414243202A002020202079
:10347C00202020203520202020202020200020204B
:10348C00202020202020342020202020202020003C
:10349C00202020202020202033202020202020200D
:1034AC00200020202020202020203220202020201E
:1034BC00202020002020202020202020312020200F
:1034CC00202020202000202020202020456E646514
:1034DC0021202020202020002020202020202020FF
:1034EC002020202020202020200024205F002420C9
:1034FC002000202020204175746F73746172742138
:06350C0020202020200019
:00000001FF
